:1005E40041004C0041004E004100490042004700D8
:0105F4000006
:100FB0007F14EFD39400400E7E01EED394004003E3
:060FC0001E80F71F80EC0B
:010FC6002208
:10073900E490003CF0A3F0A3F0A3F0120CE5121131
:100749009CEF60FA12119612002612079B12101DD7
:10075900EF60097B007A00790B1206D1120DFFEFC9
:10076900600F120006E4FF120F4EE4FF120F8080A3
:1007790009120DDFEF6003120006120E3FEF600C45
:10078900121190EF600612118A1210891210D68088
:01079900ADB2
:01079A00223C
:01003A0022A3
:0111D20022FA
:1006D1008B308A3189321210FC12111DAB30AA31D4
:1006E100A932900002120195B4800A900001120112
:1006F100956480601AAB30AA31A9329000021201D0
:1007010095FF900001120195FD1203331210F1AB18
:1007110030AA31A932900003120195601A900003AA
:10072100120195FF120E1FAB30AA31A932900004BD
:08073100120195FF120EF922DE
:1005F5004200550000420053000041004F004100F9
:07060500500042005100000B
:1009E6008F398D3AE539700EFD7F011204D6E4FD8C
:1009F6007F041204D622743C2539F539E53A600F96
:100A0600E4FD7F011204D6AD397F041204D622AD6F
:0E0A1600397F011204D6E4FD7F041204D622BB
:100A9E008F398D3AE539700DFD7F031204D6E4FDD2
:100AAE00FF1204D622743C2539F539E53A600EADB5
:100ABE00397F031204D6E4FDFF1204D622E4FD7F33
:0C0ACE00031204D6AD39E4FF1204D62256
:100F1700E4FD7F011204D6E4FD7F041204D6E4FD4C
:0C0F27007F031204D6E4FDFF1204D62262
:100006007DFF7F011204D67DFF7F041204D67DFF9B
:0D0016007F031204D67DFFE4FF1204D62202
:100F4E008F48EF24FE600804700AD294C29322C226
:090F5E0094D29322C294C29322A2
:0311C000AF482213
:100F80008F47EF14600814700AD290C28322C29077
:080F9000D28322C290C2832229
:0311C300AF472211
:100EBD008E378F38C3E537648094804006E4FD1289
:0E0ECD0009E622E538F404FF7D011209E62251
:100EDB008E378F38C3E537648094804006E4FD126B
:0E0EEB000A9E22E538F404FF7D01120A9E22C1
:04033300AB05AA0765
:10033700E4F533F534F535F536900040F0EA2480DE
:10034700F534E434FFF533EA2480F536E434FFF579
:1003570035EB6480700302041BEA64807050EBD3B2
:100367009480401EEB2480F536E434FFF535C3E472
:100377009536FFE49535FE7C007D021202298E3307
:100387008F34EBC39480400302041BEBFFC37480DC
:100397009FF534E49400F533C3E49534FFE49533D3
:1003A700FE7C007D021202298E358F368066EAD3E5
:1003B7009480402FEBD39480400FE4F533F534EB72
:1003C7002480F536E434FFF535EBC394805045E4DB
:1003D700F535F536EBFFC374809FF534E49400F5EB
:1003E700338031EAC39480502BEB94804011E4F5BD
:1003F70033F534EBFF74809FF536E49400F535EB65
:10040700C39480500FE4F535F536EB2480F534E4DA
:1004170034FFF533AF34AE33120EBDAF36AE3512FF
:020427000EDBEA
:0104290022B0
:100DDF00900055E07002A3E06010900056E024FFF1
:100DEF00F0900055E034FFF080037F01227F002256
:0B10F1009000557401F0A3742CF02255
:100DFF00900053E07002A3E06010900054E024FFD5
:100E0F00F0900053E034FFF080037F01227F002237
:0B10FC009000537402F0A37458F0221F
:100E1F00AE07EED3944050067F01120F4E22EEC361
:100E2F0094D040067F02120F4E22E4FF120F4E2283
:071152009000507401F0222F
:06118A00E4900050F02289
:06119000900050E0FF2278
:1010890090004FE06003E4F02290004F7401F022D9
:100F980012115212110790004FE060067F01120FE4
:080FA80080227F02120F80225B
:100EF9008F33E533D394405004120F9822E533C35E
:0E0F090094C04004120F9822E4FF120F8022C1
:100E3F00900051E07002A3E06010900052E024FF98
:100E4F00F0900051E034FFF080037F01227F0022F9
:0B1107009000517401F0A3742CF02242
:10060C00014301450058708090A0B0410057AF02E3
:03061C004100009A
:0311C6008F432232
:0311C900AF43220F
:1008B600E4900042F0A3F0A3F012003E900043E45F
:1008C600F0A3EFF0120D9C12003E900044E02FF0D2
:1008D600900043E03400F0120D9C12003E9000445C
:1008E600E02FF0900043E03400F0120D9C12003E21
:1008F600900044E02FF0900043E03400F0E0FEA3C7
:0B090600E07802CEC313CE13D8F9FF37
:0109110022C3
:101099007E007C017D631201C21C7D5F1201D42296
:0F10A9008E308F317F01121043AF31121043226E
:10065B00900058E0FEEFC39E5007E4900063F080DB
:10066B0034900059E0FEEFC39E5008900063740174
:10067B00F0802290005AE0FEEFC39E50089000637A
:10068B007402F0801090005BE0FEEFC39E5006906A
:10069B0000637403F0900063E02458F582E43400A7
:1006AB00F583E02405FDE433FCD3EF9DEC6480F887
:1006BB00748098400B900063E094035003E004F0C7
:0506CB00900063E0FF58
:0106D0002207
:10079B00C3E54294D0E541648094874049E4F54138
:1007AB00F5421208B6900040E4F0A3EFF0C3E094DA
:1007BB0075900040E09400500890005774A1F080B1
:1007CB001AC3900041E0947E900040E09400500BDF
:1007DB00900057E064A1600374A2F0900057E0FF13
:0E07EB007E001210A9220542E542700205416F
:0107F90022DD
:100D57007F0CEFD3940040197E82EED39400400EAF
:100D67007D13EDD3940040031D80F71E80EC1F8098
:020D7700E10099
:010D79002257
:0311CC00D2AF227D
:0311CF00C2AF228A
:100B520053B1BF53B2BF53B17F53B27F7598504365
:100B62008920438780438E1053C4DFAB07AA06A9AE
:100B720005A8047F407E427D0F7C0012029BEF0499
:0B0B8200F404F58DD28ED299D2AC2283
:07113A003098FDAF99C29847
:01114100228B
:1010430090004274C3F0A37450F0C2998F99309901
:01105300FD9F
:011054002279
:100FC700AF051DEF601012017CFF12104374012959
:070FD700F9E43AFA80EA2276
:100FDE0012017C601012017CFF121043740129F97A
:060FEE00E43AFA80EB2258
:100BC4008F1FD3EF9400EE940040287D11EDD39451
:100BD4000040197C86ECD39400400E7B02EBD39446
:100BE4000040031B80F71C80EC1D80E1EF1F7001A7
:030BF4001E80CF91
:010BF70022DB
:100D7A007F11EFD3940040197E86EED39400400E83
:100D8A007D02EDD3940040031D80F71E80EC1F8086
:010D9A00E177
:010D9B002235
:100D9C007FC1EFD3940040197E76EED39400400EC1
:100DAC007D02EDD3940040031D80F71E80EC1F8064
:010DBC00E155
:010DBD002213
:0300000002042ACD
:10042A0075C7AA75C75575FD5A75C7AA75C7557593
:10043A00FDA5787FE4F6D8FD9000007FFF7E03E4F7
:0C044A00F0A3DFFCDEFA7581490204918A
:08061F0041003A0041002C00EB
:100CE500120B8D120DBE1210787BFF7A0C792B1228
:100CF500100A7FC07E127D007C00120B521209A3E0
:070D05001211CC1211B822FB
:0111D30022F9
:0411AC00120C5E22A1
:100C8D00900039E06002E4F090002FE0B40117A36A
:100C9D00E0701390003B04F090002EE004F070061D
:0D0CAD0090002DE004F090002FE0A3F02255
:0411B0001210B8223F
:100F6700C390002EE094E890002DE094034007E43E
:090F7700F0A3F07F01227F0022AB
:0711420090003BE0FFE4F028
:011149002283
:0411B40012113122C1
:100E7F00AE07EEC3940440037FFF22EE25E024313A
:0F0E8F00F582E43400F583ECF0A3EDF0AF06221A
:10105500EF25E02431F582E43400F583E0FEA3E0DA
:02106500FF2268
:100BF800EF14601314601914601F240370227F0718
:100C08001208588F498019E4FF1210E48F498010A8
:100C18007F051207FA8F4980077F071207FA8F4965
:020C2800AF49D2
:010C2A0022A7
:08114A00AD07E4FF1211282299
:100A24008B448A458946EF14601524FA601B1460D0
:100A34002224087027AB44AA45A94612117522AB9B
:100A440044AA45A94612117C22AB44AA45A94612E0
:0D0A5400116722AB44AA45A94612116E227B
:0711590090003A7401F0223E
:06119600E490003AF02293
:06119C0090003AE0FF2282
:100C2B0090002CE0C3940A5005E004F08011E4908E
:100C3B00002CF0121159120FF4EF60031211BC12B9
:100C4B000ADAD3EF94B4EE94004004120E9E2212F3
:020C5B000F3355
:010C5D002274
:100627000327000000032A000000032D0000000339
:0906370021000000032400000072
:100DBE0053B3EF43B410C29453B3F743B408C29382
:100DCE0053B3FE43B401C29053B1F743B208C2838A
:010DDE0022F2
:1007FA00EFB408005055900807F828287302081F1C
:10080A0002082602082D02083402083B02084202A6
:10081A000849020850A280E433FE802FA281E43303
:10082A00FE8028A282E433FE8021A283E433FE8084
:10083A001AA284E433FE8013A285E433FE800CA25C
:0D084A0086E433FE8005A287E433FEAF068E
:01085700227E
:10085800EFB408005055900865F828287302087D01
:1008680002088402088B0208920208990208A00272
:1008780008A70208AEA290E433FE802FA291E433C9
:10088800FE8028A292E433FE8021A293E433FE8006
:100898001AA294E433FE8013A295E433FE800CA2DE
:0D08A80096E433FE8005A297E433FEAF0610
:0108B5002220
:0C10E400E4FEEF7005A2B0E433FEAF069E
:0110F00022DD
:09112800EF7005ED24FF92A022F6
:071160008B278A2889292250
:071167008B2A8A2B892C2240
:07116E008B2D8A2E892F2230
:071175008B218A228923224D
:07117C008B248A258926223D
:03003B0002056655
:10056600C0E0C0F0C083C082C0D075D000C000C05B
:0D05760001C002C003C004C005C006C007DC
:1005830085EC3BE53B30E411E528452945276033FD
:10059300AA28A92912032D802AE53B30E511E52B72
:1005A300452C452A601DAA2BA92C12032D8014E586
:1005B3003B30E60FE52E452F452D6007AA2EA92FC8
:0605C30012032D75EC008F
:1005C900D007D006D005D004D003D002D001D00086
:0B05D900D0D0D082D083D0F0D0E03230
:0300030002095C93
:10095C00C0E0C0F0C083C082C0D075D000C000C061
:10096C0001C002C003C004C005C006C007E5224593
:10097C002345216007AA22A92312032DD007D006F4
:10098C00D005D004D003D002D001D000D0D0D0827A
:07099C00D083D0F0D0E0325F
:05064000033C00000076
:101067005389F0438901538EF7E4F58CF58AD28CC6
:011077002256
:0F10B800C28C858C3F858A40D28CAE3FAF4022E0
:10100A008B3C8A3D893E75C40275C6FF75C5384357
:03101A009C022213
:0411B80043C4082202
:08113100AFC6EFFEADC5EDFFF6
:011139002293
:030083000209125D
:10091200C0E0C0F0C083C082C0D075D000C000C0AB
:1009220001C002C003C004C005C006C00753C4EF23
:10093200E53D453E453C6007AA3DA93E12032DD048
:1009420007D006D005D004D003D002D001D000D009
:0A095200D0D082D083D0F0D0E03284
:0B06450041000100010A000208000053
:100A6100E490002AF053B1BF53B2BF53B17F53B2E8
:100A71007F759850438920438780438E1053C4DF8C
:100A81007B807A25F9F87F407E427D0FFC12029B24
:0C0A9100EF04F404F58DD28ED299D2ACA3
:010A9D002236
:100C5E00EDD394145007900000EDF0800690000044
:100C6E007414F0900000E0FF7E0078167C007D0189
:0F0C7E00120156900016E0F599E490002BF02239
:10101D00900001E0900040F0E4900001F09000405D
:02102D00E0FFE2
:01102F00229E
:071183009000017401F0224D
:100D330075080075090AE50AC394145016740B2547
:100D43000AF8A607E50AB40A08E50BB4660312110C
:040D530083050A22E8
:0411BC00E4F50A222A
:100FF400E5094508600AE50915097002150880032A
:061004007F01227F0022A3
:03002300020CBA12
:100CBA00C0E0C083C082C0D075D000C000C0073079
:100CCA009807C298AF99120D33309902C299D0078A
:0B0CDA00D000D0D0D082D083D0E03218
:100B8D0075C7AA75C75575AA06A2AF9200C2AF75F3
:100B9D00C7AA75C75543AA40A20092AFE5AA44BFA4
:100BAD00F460F9A2AF9200C2AF75C7AA75C75543DD
:070BBD00AA80A20092AF2202
:10002600A2AF9200C2AF75C7AA75C75543AA40A230
:040036000092AF2263
:1009A30053B3FB43B40453B3FD43B40253B1FE4307
:1009B300B20153B1FD43B202C292C291C280C2815D
:1009C30053DF3F538EBF43DF0253DFFAE4F5D175A4
:1009D300D9BAD2DED2DF43DE0143DE0243DE08436F
:0309E300DE102201
:100F330043DE0143DE0243DE0843DE10D2DF12113B
:0B0F4300C0120F4E1211C3120F8022CB
:100E9E00C2DF53DEFE53DEFD53DEF753DEEFC292AA
:0F0EAE00C291C280C281C294C293C290C28322F9
:1004D600EF14601814601D14602214602714605213
:1004E6002405707BE4F5D28DDAD2DE22E4F5D38DD5
:1004F600DBD2DE22E4F5D48DDCD2DE22E4F5D58D26
:10050600DDD2DE22A2AF9200C2AF75C7AA75C7556B
:10051600439101A20092AFE4F5C48DCCA2AF920044
:10052600C2AF75C7AA75C7555391FEA20092AFD246
:10053600DE22A2AF9200C2AF75C7AA75C755439116
:1005460001A20092AFE4F5C58DCDA2AF9200C2AF75
:1005560075C7AA75C7555391FEA20092AFD2DE2287
:0F10C700EF700443DE0122EFB4010343DE022287
:10103000EF700653DEFED29222EFB4010553DEFDBF
:03104000D2912228
:0A06500042005D000042005F03E875
:1010780053B37F43B480D29753ACFE43AD01D2B093
:011088002245
:0511A200C297C2B0225B
:0511A700D297D2B02236
:0B1112003097041211A2221211A72234
:100E5F0090005DE07002A3E0601090005EE024FF60
:100E6F00F090005DE034FFF080037F01227F0022CD
:0B111D0090005D740BF0A374B8F0228A
:100D0C0090005FE07002A3E0600F900060E024FFB1
:100D1C00F090005FE034FFF02290005F7403F0A3CA
:070D2C0074E8F0121112221D
:0E10D600120E5FEF6004120D0C221211A22206
:0111D40022F8
:100ADA0053E8F043E80543B11053B2EFE4F5F643A7
:100AEA00F62043E101C2EFD2EE30EFFDAFC3EF755E
:100AFA00F010A4ADC27C002DFEEC35F0900040F061
:0B0B0A00A3CEF0900040E0FEA3E0FF4F
:010B150022BD
:100B160053E8F043E80443B12053B2DFE4F5F6436B
:100B2600F61043E101C2EFD2EE30EFFDAFC3EF7531
:100B3600F010A4ADC27C002DFEEC35F0900061F003
:0B0B4600A3CEF0900061E0FEA3E0FFF2
:010B51002281
:10003E0053E8F043E80443B12053B2DFE4F5F6434E
:10004E00F61043E101C2EFD2EE30EFFDAFC3EF7514
:10005E00F010A4ADC27C002DFEEC35F0900045F002
:10006E00A3CEF0900045E0C4F854F0C868A3E0C4F5
:04007E00540F48FFD4
:01008200225B
:10045600020739E493A3F8E493A34003F68001F27C
:1004660008DFF48029E493A3F85407240CC8C333A7
:10047600C4540F4420C8834004F456800146F6DF76
:10048600E4800B01020408102040809005E4E47E1D
:10049600019360BCA3FF543F30E509541FFEE4936B
:1004A600A360010ECF54C025E060A840B8E493A332
:1004B600FAE493A3F8E493A3C8C582C8CAC583CA5D
:1004C600F0A3C8C582C8CAC583CADFE9DEE780BE15
:01065A00009F
:10008600E709F608DFFA8046E709F208DFFA803E5C
:1000960088828C83E709F0A3DFFA8032E309F60849
:1000A600DFFA8078E309F208DFFA807088828C83B1
:1000B600E309F0A3DFFA806489828A83E0A3F60865
:1000C600DFFA805889828A83E0A3F208DFFA804C3F
:1000D60080D280FA80C680D4806980F28033801016
:1000E60080A680EA809A80A880DA80E280CA80337F
:1000F60089828A83ECFAE493A3C8C582C8CCC583F7
:10010600CCF0A3C8C582C8CCC583CCDFE9DEE780C6
:100116000D89828A83E493A3F608DFF9ECFAA9F045
:10012600EDFB2289828A83ECFAE0A3C8C582C8CC9B
:10013600C583CCF0A3C8C582C8CCC583CCDFEADEB4
:10014600E880DB89828A83E493A3F208DFF980CC16
:1001560088F0EF60010E4E60C388F0ED2402B4040F
:100166000050B9F582EB2402B4040050AF232345B6
:0601760082239000D67305
:10017C00BB010689828A83E0225002E722BBFE0281
:09018C00E32289828A83E49322B4
:10019500BB010CE58229F582E5833AF583E022501F
:1001A50006E92582F8E622BBFE06E92582F8E22269
:0D01B500E58229F582E5833AF583E4932283
:1001C200EF8DF0A4A8F0CF8CF0A428CE8DF0A42E51
:0201D200FE220B
:1001D400BC000BBE0029EF8DF084FFADF022E4CC0F
:1001E400F875F008EF2FFFEE33FEEC33FCEE9DECD8
:1001F400984005FCEE9DFE0FD5F0E9E4CEFD22ED1E
:10020400F8F5F0EE8420D21CFEADF075F008EF2F67
:10021400FFED33FD4007985006D5F0F222C398FD58
:050224000FD5F0EA22F5
:10022900C2D5EC30E709B2D5E4C39DFDE49CFCEEF0
:1002390030E715B2D5E4C39FFFE49EFE1201D4C393
:10024900E49DFDE49CFC80031201D430D507C3E48E
:060259009FFFE49EFE225F
:10025F0075F008758200EF2FFFEE33FECD33CDCC56
:10026F0033CCC58233C5829BED9AEC99E5829840D9
:10027F000CF582EE9BFEED9AFDEC99FC0FD5F0D6B6
:10028F00E4CEFBE4CDFAE4CCF9A88222B800C1B9E0
:10029F000059BA002DEC8BF084CFCECDFCE5F0CB1E
:1002AF00F97818EF2FFFEE33FEED33FDEC33FCEB57
:1002BF0033FB10D703994004EB99FB0FD8E5E4F912
:1002CF00FA227818EF2FFFEE33FEED33FDEC33FCFF
:1002DF00C933C910D7059BE99A4007EC9BFCE99AF3
:1002EF00F90FD8E0E4C9FAE4CCFB2275F010EF2F38
:1002FF00FFEE33FEED33FDCC33CCC833C810D70738
:10030F009BEC9AE899400AED9BFDEC9AFCE899F872
:0E031F000FD5F0DAE4CDFBE4CCFAE4C8F92205
:06032D008A838982E4735B
:00000001FF
