:100B2A0048656C6C6F205769464920436172200DF5
:020B3A000A00AF
:1005CA0041003F004100410041003C0042003A0026
:0105DA000020
:100A90007F14EFD39400400E7E01EED39400400308
:060AA0001E80F71F80EC30
:010AA600222D
:10003E00E490004AF012003912091B7BFF7A0B790B
:10004E002A120AEB120C3AEF60FA120C34120980E3
:10005E00EF600F120006E4FF120AA7E4FF120AD5A2
:10006E008009120960EF6003120006120B7D80D426
:01007E00225F
:0100390022A4
:01003A0022A3
:100450008B318A328933120BB0120BBBAB31AA320B
:10046000A933900002120195B4800A900001120194
:10047000956480601AAB31AA32A933900002120150
:1004800095FF900001120195FD120574120BA5ABAA
:1004900031AA32A933900003120195601A9000032B
:1004A000120195FF1209A0AB31AA32A933900004C2
:0804B000120195FF1209C022A0
:0A05DB00420044000042004200000C
:100875008F38E53860042450F538ED600FE4FD7FCE
:1008850001120342AD387F0412034222AD387F01C5
:0B089500120342E4FD7F041203422224
:1008A0008F38E53860042450F538ED600EAD387FA0
:1008B00003120342E4FDFF12034222E4FD7F031210
:0A08C0000342AD38E4FF12034222A8
:100A5B00E4FD7F01120342E4FD7F04120342E4FD37
:0C0A6B007F03120342E4FDFF120342224D
:100006007DFF7F011203427DFF7F041203427DFFC5
:0D0016007F031203427DFFE4FF120342222C
:100AA700EF24FE600804700AD285C29522C285D25F
:070AB7009522C285C29522C1
:100AD500EF14600814700AD290C28322C290D283A8
:060AE50022C290C2832230
:100A1F008E368F37C3E536648094804006E4FD122E
:0E0A2F00087522E537F404FF7D0112087522D8
:100A3D008E368F37C3E536648094804006E4FD1210
:0E0A4D0008A022E537F404FF7D011208A02264
:02057400AC07D2
:10057600E4FFFEF534F53590004BF0EC2480FFE403
:1005860034FFFEEC2480F535E434FFF534ED648069
:100596006027EDD39480400DE4FEFFED2480F53511
:1005A600E434FFF534EDC39480500EE4F534F535AC
:1005B600C374809DFFE49400FE120A1FAF35AE346B
:0305C600120A3DD9
:0105C900220F
:10096000900044E07002A3E06010900045E024FF96
:10097000F0900044E034FFF080037F01227F0022EA
:0B0BA5009000447401F0A374F4F022EF
:10098000900042E07002A3E06010900043E024FF7A
:10099000F0900042E034FFF080037F01227F0022CC
:0B0BB0009000427403F0A374E8F022F0
:1009A000AE07EED3944050067F01120AA722EEC391
:1009B00094D040067F02120AA722E4FF120AA7225F
:1009C000AE07EED3944050067F01120AD522EEC343
:1009D00094C040067F02120AD522E4FF120AD522F3
:030C5000D2AF22FE
:030C5300C2AF220B
:1007AB0053B1BF53B2BF53B17F53B27F7598504310
:1007BB008920438780438E1053C4DFAB07AA06A959
:1007CB0005A8047F407E427D0F7C001201FEEF04E2
:0B07DB00F404F58DD28ED299D2AC222E
:070BEA003098FDAF99C2989D
:010BF10022E1
:080BF200C2998F993099FD2290
:100ABE00AF051DEF601012017CFF120BF2740129BD
:070ACE00F9E43AFA80EA2284
:100AEB0012017C601012017CFF120BF2740129F9C8
:060AFB00E43AFA80EB2250
:0300000002029663
:1002960075C7AA75C75575FD5A75C7AA75C7557529
:1002A600FDA5787FE4F6D8FD9000007FFF7E03E48D
:0C02B600F0A3DFFCDEFA7581400202FDBF
:0405E5004100380099
:10091B0012093F120BD87BFF7A0B798B1200267FC3
:10092B00C07E127D007C001207AB1206F1120C5038
:04093B00120C482230
:010C5C002275
:04007F001208192228
:10084800900037E06002E4F090002DE0B40117A3B7
:10085800E0701390003904F090002CE004F070066A
:0D08680090002BE004F090002DE0A3F022A2
:040C4000120B5F2212
:100A7700C390002CE094E890002BE094034007E437
:090A8700F0A3F07F01227F0022A0
:070BFA00900039E0FFE4F078
:010C010022D0
:040C4400120BCF229E
:100A0000AE07EEC3940440037FFF22EE25E0242FBF
:0F0A1000F582E43400F583ECF0A3EDF0AF06229D
:100B3C00EF25E0242FF582E43400F583E0FEA3E0FA
:020B4C00FF2286
:1007E600EF14601314601914601F240370227F072E
:1007F6001205168F1F8019E4FF120B988F1F8010A9
:100806007F051204B88F1F80077F071204B88F1F59
:02081600AF1F12
:0108180022BD
:080C0200AD07E4FF120BC6224E
:100731008B3E8A3F8940EF14601524FA601B1460D8
:100741002224087027AB3EAA3FA940120C2622ABF7
:100751003EAA3FA940120C2D22AB3EAA3FA940124E
:0D0761000C1822AB3EAA3FA940120C1F222B
:070C0A009000387401F02294
:060C3400E4900038F022FC
:060C3A00900038E0FF22EB
:0D0B8B00120C0A120B01EF6003120C4C2239
:1005E9000327000000032A000000032D0000000378
:0905F900210000000324000000B1
:10093F0053B1DF43B220C28553B3DF43B420C29516
:10094F0053B3FE43B401C29053B1F743B208C2830D
:01095F002275
:1004B800EFB4080050559004C5F82828730204DDED
:1004C8000204E40204EB0204F20204F90205000249
:1004D800050702050EA280E433FE802FA281E433D3
:1004E800FE8028A282E433FE8021A283E433FE80CA
:1004F8001AA284E433FE8013A285E433FE800CA2A2
:0D05080086E433FE8005A287E433FEAF06D3
:0105150022C3
:10051600EFB408005055900523F828287302053BD0
:1005260002054202054902055002055702055E0210
:10053600056502056CA290E433FE802FA291E43398
:10054600FE8028A292E433FE8021A293E433FE804B
:100556001AA294E433FE8013A295E433FE800CA223
:0D05660096E433FE8005A297E433FEAF0655
:010573002265
:0C0B9800E4FEEF7005A2B0E433FEAF06EF
:010BA400222E
:090BC600EF7005ED24FF92A0225E
:070C11008B278A28892922A4
:070C18008B2A8A2B892C2294
:070C1F008B2D8A2E892F2284
:070C26008B218A22892322A1
:070C2D008B248A2589262291
:03003B000203D2EB
:1003D200C0E0C0F0C083C082C0D075D000C000C0F1
:0D03E20001C002C003C004C005C006C00772
:1003EF0085EC30E53030E411E528452945276033A9
:1003FF00AA28A929120290802AE53030E511E52BB1
:10040F00452C452A601DAA2BA92C1202908014E5B9
:10041F003030E60FE52E452F452D6007AA2EA92F68
:06042F0012029075EC00C2
:10043500D007D006D005D004D003D002D001D0001B
:0B044500D0D0D082D083D0F0D0E032C5
:030003000206638F
:10066300C0E0C0F0C083C082C0D075D000C000C05D
:1006730001C002C003C004C005C006C007E522458F
:100683002345216007AA22A923120290D007D0068E
:10069300D005D004D003D002D001D000D0D0D08276
:0706A300D083D0F0D0E0325B
:050602000339000000B7
:100B4E005389F0438901538EF7E4F58CF58AD28CE4
:010B5E002274
:0F0B5F00C28C858C3C858A3DD28CAE3CAF3D224A
:100026008B398A3A893B75C40275C6F875C5304363
:030036009C022207
:040C480043C4082277
:080BCF00AFC6EFFEADC5EDFF5E
:010BD70022FB
:0300830002061959
:10061900C0E0C0F0C083C082C0D075D000C000C0A7
:1006290001C002C003C004C005C006C00753C4EF1F
:10063900E53A453B45396007AA3AA93B120290D0F1
:1006490007D006D005D004D003D002D001D000D005
:0A065900D0D082D083D0F0D0E03280
:07060700010A0002080000D7
:10076E00E4900029F053B1BF53B2BF53B17F53B2DF
:10077E007F759850438920438780438E1053C4DF82
:10078E007B807A25F9F87F407E427D0FFC1201FEB8
:0C079E00EF04F404F58DD28ED299D2AC99
:0107AA00222C
:10081900EDD394145007900000EDF080069000008D
:100829007414F0900000E0FF7E0078157C007D01D3
:0F083900120156900015E0F599E490002AF02284
:1008CA0075080075090AE50AC39414501C740B25AF
:1008DA000AF8A607E50AB40A0EE50BB466097B0016
:0A08EA007A00790B120450050A226F
:040C4C00E4F50A229F
:100B0100E5094508600AE509150970021508800321
:060B11007F01227F00229B
:030023000206AA28
:1006AA00C0E0C0F0C083C082C0D075D000C000C016
:1006BA0001C002C003C004C005C006C007309807C5
:1006CA00C298AF991208CA309902C299D007D006C7
:1006DA00D005D004D003D002D001D000D0D0D0822F
:0706EA00D083D0F0D0E03214
:1006F10053B3FB43B40453B3FD43B40253B1FE43BC
:10070100B20153B1FD43B202C292C291C280C28111
:1007110053DF3F538EBF43DF07E4F5D175D9CED206
:10072100DED2DF43DE0143DE0243DE0843DE102278
:10034200EF14601814601D146022146027146052A8
:100352002405707BE4F5D28DDAD2DE22E4F5D38D6A
:10036200DBD2DE22E4F5D48DDCD2DE22E4F5D58DBB
:10037200DDD2DE22A2AF9200C2AF75C7AA75C75501
:10038200439101A20092AFE4F5C48DCCA2AF9200DA
:10039200C2AF75C7AA75C7555391FEA20092AFD2DC
:1003A200DE22A2AF9200C2AF75C7AA75C7554391AC
:1003B20001A20092AFE4F5C58DCDA2AF9200C2AF0B
:1003C20075C7AA75C7555391FEA20092AFD2DE221D
:0F0B6E00EF700443DE0122EFB4010343DE0222E5
:100B1700EF700653DEFED29222EFB4010553DEFDDD
:030B2700D2912246
:0A060E00420046000042004803E8E5
:090BD80053B37F43B480C297229D
:030C5600D2972210
:030C5900C297221D
:090BE100309703C29722D297223B
:1009E000900046E07002A3E06010900047E024FF12
:1009F000F0900046E034FFF080037F01227F002268
:0B0BBB00900046740BF0A374B8F02209
:1008F400900048E07002A3E0600F900049E024FFFC
:10090400F0900048E034FFF0229000487403F0A314
:0709140074E8F0120BE12270
:0E0B7D001209E0EF60041208F422120C562256
:1002C20002003EE493A3F8E493A34003F68001F214
:1002D20008DFF48029E493A3F85407240CC8C3333D
:1002E200C4540F4420C8834004F456800146F6DF0C
:1002F200E4800B01020408102040809005CAE47ECD
:10030200019360BCA3FF543F30E509541FFEE49300
:10031200A360010ECF54C025E060A840B8E493A3C7
:10032200FAE493A3F8E493A3C8C582C8CAC583CAF2
:10033200F0A3C8C582C8CAC583CADFE9DEE780BEAA
:0106180000E1
:10008600E709F608DFFA8046E709F208DFFA803E5C
:1000960088828C83E709F0A3DFFA8032E309F60849
:1000A600DFFA8078E309F208DFFA807088828C83B1
:1000B600E309F0A3DFFA806489828A83E0A3F60865
:1000C600DFFA805889828A83E0A3F208DFFA804C3F
:1000D60080D280FA80C680D4806980F28033801016
:1000E60080A680EA809A80A880DA80E280CA80337F
:1000F60089828A83ECFAE493A3C8C582C8CCC583F7
:10010600CCF0A3C8C582C8CCC583CCDFE9DEE780C6
:100116000D89828A83E493A3F608DFF9ECFAA9F045
:10012600EDFB2289828A83ECFAE0A3C8C582C8CC9B
:10013600C583CCF0A3C8C582C8CCC583CCDFEADEB4
:10014600E880DB89828A83E493A3F208DFF980CC16
:1001560088F0EF60010E4E60C388F0ED2402B4040F
:100166000050B9F582EB2402B4040050AF232345B6
:0601760082239000D67305
:10017C00BB010689828A83E0225002E722BBFE0281
:09018C00E32289828A83E49322B4
:10019500BB010CE58229F582E5833AF583E022501F
:1001A50006E92582F8E622BBFE06E92582F8E22269
:0D01B500E58229F582E5833AF583E4932283
:1001C20075F008758200EF2FFFEE33FECD33CDCCF4
:1001D20033CCC58233C5829BED9AEC99E582984077
:1001E2000CF582EE9BFEED9AFDEC99FC0FD5F0D654
:1001F200E4CEFBE4CDFAE4CCF9A88222B800C1B97E
:100202000059BA002DEC8BF084CFCECDFCE5F0CBBB
:10021200F97818EF2FFFEE33FEED33FDEC33FCEBF4
:1002220033FB10D703994004EB99FB0FD8E5E4F9AF
:10023200FA227818EF2FFFEE33FEED33FDEC33FC9C
:10024200C933C910D7059BE99A4007EC9BFCE99A90
:10025200F90FD8E0E4C9FAE4CCFB2275F010EF2FD5
:10026200FFEE33FEED33FDCC33CCC833C810D707D5
:100272009BEC9AE899400AED9BFDEC9AFCE899F810
:0E0282000FD5F0DAE4CDFBE4CCFAE4C8F922A3
:060290008A838982E473F9
:00000001FF
