:100ACD0048656C6C6F205769464920436172200D53
:020ADD000A000D
:10003E0041003F004100410041003C0042003A00B7
:01004E0000B1
:100A33007F14EFD39400400E7E01EED39400400365
:060A43001E80F71F80EC8D
:010A4900228A
:1004F000E4900044F01200391209417BFF7A0A7936
:10050000CD120A8E120BA7EF600C120BA1120983F9
:10051000EF600312000690003EE024FB601924FC0B
:10052000601C2498600A04701C7F02120A4A80D45E
:100530007F01120A4A80CD7F02120A7880C67F01AD
:10054000120A7880BFE4FF120A4AE4FF120A788098
:03055000B380B1C4
:010553002285
:0100390022A4
:01003A0022A3
:100342008B318A328933900002120195B4800A906F
:1003520000011201956480601AAB31AA32A9339070
:100362000002120195FF900001120195FD12061084
:10037200120B3AAB31AA32A93390000312019560F5
:100382005EE490003EF0900003120195D394405039
:100392000790003E7471F022AB31AA32A93390006B
:1003A20003120195C394D0400790003E7470F0226E
:1003B200AB31AA32A933900004120195D394405074
:1003C2000790003E7409F022AB31AA32A9339000A3
:1003D20004120195C394C0400690003E7405F022B9
:05004F00420042000028
:1008C2008F38E53860042464F538ED600FE4FD7F6D
:1008D200011203E2AD387F041203E222AD387F0138
:0B08E2001203E2E4FD7F041203E22297
:1008ED008F38E53860042464F538ED600EAD387F3F
:1008FD00031203E2E4FDFF1203E222E4FD7F031283
:0A090D0003E2AD38E4FF1203E2221A
:1009FE00E4FD7F011203E2E4FD7F041203E2E4FD55
:0C0A0E007F031203E2E4FDFF1203E2226A
:100006007DFF7F011203E27DFF7F041203E27DFF85
:0D0016007F031203E27DFFE4FF1203E222EC
:100A4A00EF24FE600804700AD285C29522C285D2BC
:070A5A009522C285C295221E
:100A7800EF14600814700AD290C28322C290D28305
:060A880022C290C283228D
:1009C2008E368F37C3E536648094804006E4FD128C
:0E09D20008C222E537F404FF7D011208C2229C
:1009E0008E368F37C3E536648094804006E4FD126E
:0E09F00008ED22E537F404FF7D011208ED2228
:02061000AC0735
:10061200E4FFFEF534F535900045F0EC2480FFE46C
:1006220034FFFEEC2480F535E434FFF534ED6480CC
:100632006027EDD39480400DE4FEFFED2480F53574
:10064200E434FFF534EDC39480500EE4F534F5350F
:10065200C374809DFFE49400FE1209C2AF35AE342C
:030662001209E09A
:010665002272
:10098300900042E07002A3E06010900043E024FF77
:10099300F0900042E034FFF080037F01227F0022C9
:0B0B3A009000427401F0A374F4F0225C
:030BBD00D2AF2292
:030BC000C2AF229F
:1007F80053B1BF53B2BF53B17F53B27F75985043C3
:100808008920438780438E1053C4DFAB07AA06A90B
:1008180005A8047F407E427D0F7C001201FEEF0494
:0B082800F404F58DD28ED299D2AC22E0
:070B57003098FDAF99C29830
:010B5E002274
:080B5F00C2998F993099FD2223
:100A6100AF051DEF601012017CFF120B5F740129AD
:070A7100F9E43AFA80EA22E1
:100A8E0012017C601012017CFF120B5F740129F9B8
:060A9E00E43AFA80EB22AD
:0300000002029663
:1002960075C7AA75C75575FD5A75C7AA75C7557529
:1002A600FDA5787FE4F6D8FD9000007FFF7E03E48D
:0C02B600F0A3DFFCDEFA7581400202FDBF
:04005400410038002F
:100941001209627BFF7A0B79201200267FC07E128A
:100951007D007C001207F812073E120BBD120BB589
:010961002273
:01008200225B
:04007E0012086622DC
:10089500900037E06002E4F090002DE0B40117A36A
:1008A500E0701390003904F090002CE004F070061D
:0D08B50090002BE004F090002DE0A3F02255
:040BAD00120B022203
:100A1A00C390002CE094E890002BE094034007E494
:090A2A00F0A3F07F01227F0022FD
:070B6700900039E0FFE4F00B
:010B6E002264
:040BB100120B4E22B3
:1009A300AE07EEC3940440037FFF22EE25E0242F1D
:0F09B300F582E43400F583ECF0A3EDF0AF0622FB
:100ADF00EF25E0242FF582E43400F583E0FEA3E058
:020AEF00FF22E4
:10083300EF14601314601914601F240370227F07E0
:100843001205B28F1F8019E4FF120B2D8F1F80102A
:100853007F051205548F1F80077F071205548F1FD2
:02086300AF1FC5
:010865002270
:080B6F00AD07E4FF120B452263
:10077E008B3E8A3F8940EF14601524FA601B14608B
:10078E002224087027AB3EAA3FA940120B9322AB3E
:10079E003EAA3FA940120B9A22AB3EAA3FA9401295
:0D07AE000B8522AB3EAA3FA940120B8C2206
:070B77009000387401F02228
:060BA100E4900038F02290
:060BA700900038E0FF227F
:0D0B2000120B77120AA4EF6003120BB9222A
:100058000327000000032A000000032D000000030E
:0900680021000000032400000047
:1009620053B1DF43B220C28553B3DF43B420C295F3
:1009720053B3FE43B401C29053B1F743B208C283EA
:010982002252
:10055400EFB408005055900561F828287302057916
:1005640002058002058702058E02059502059C029C
:1005740005A30205AAA280E433FE802FA281E433FE
:10058400FE8028A282E433FE8021A283E433FE802D
:100594001AA284E433FE8013A285E433FE800CA205
:0D05A40086E433FE8005A287E433FEAF0637
:0105B1002227
:1005B200EFB4080050559005BFF82828730205D7FC
:1005C2000205DE0205E50205EC0205F30205FA0268
:1005D2000601020608A290E433FE802FA291E433C2
:1005E200FE8028A292E433FE8021A293E433FE80AF
:1005F2001AA294E433FE8013A295E433FE800CA287
:0D06020096E433FE8005A297E433FEAF06B8
:01060F0022C8
:0C0B2D00E4FEEF7005A2B0E433FEAF065A
:010B39002299
:090B4500EF7005ED24FF92A022DF
:070B7E008B278A2889292238
:070B85008B2A8A2B892C2228
:070B8C008B2D8A2E892F2218
:070B93008B218A2289232235
:070B9A008B248A2589262225
:03003B000204724A
:10047200C0E0C0F0C083C082C0D075D000C000C050
:0D04820001C002C003C004C005C006C007D1
:10048F0085EC30E53030E411E52845294527603308
:10049F00AA28A929120290802AE53030E511E52B10
:1004AF00452C452A601DAA2BA92C1202908014E519
:1004BF003030E60FE52E452F452D6007AA2EA92FC8
:0604CF0012029075EC0022
:1004D500D007D006D005D004D003D002D001D0007B
:0B04E500D0D0D082D083D0F0D0E03225
:030003000206B042
:1006B000C0E0C0F0C083C082C0D075D000C000C010
:1006C00001C002C003C004C005C006C007E5224542
:1006D0002345216007AA22A923120290D007D00641
:1006E000D005D004D003D002D001D000D0D0D08229
:0706F000D083D0F0D0E0320E
:0500710003390000004E
:100AF1005389F0438901538EF7E4F58CF58AD28C42
:010B010022D1
:0F0B0200C28C858C3C858A3DD28CAE3CAF3D22A7
:100026008B398A3A893B75C40275C6F875C5304363
:030036009C022207
:040BB50043C408220B
:080B4E00AFC6EFFEADC5EDFFDF
:010B5600227C
:030083000206660C
:10066600C0E0C0F0C083C082C0D075D000C000C05A
:1006760001C002C003C004C005C006C00753C4EFD2
:10068600E53A453B45396007AA3AA93B120290D0A4
:1006960007D006D005D004D003D002D001D000D0B8
:0A06A600D0D082D083D0F0D0E03233
:07007600010A00020800006E
:1007BB00E4900029F053B1BF53B2BF53B17F53B292
:1007CB007F759850438920438780438E1053C4DF35
:1007DB007B807A25F9F87F407E427D0FFC1201FE6B
:0C07EB00EF04F404F58DD28ED299D2AC4C
:0107F70022DF
:10086600EDD394145007900000EDF0800690000040
:100876007414F0900000E0FF7E0078157C007D0186
:0F088600120156900015E0F599E490002AF02237
:1009170075080075090AE50AC39414501C740B2561
:100927000AF8A607E50AB40A0EE50BB466097B00C8
:0A0937007A00790B120342050A2230
:040BB900E4F50A2233
:100AA400E5094508600AE50915097002150880037F
:060AB4007F01227F0022F9
:030023000206F7DB
:1006F700C0E0C0F0C083C082C0D075D000C000C0C9
:1007070001C002C003C004C005C006C00730980777
:10071700C298AF99120917309902C299D007D0062B
:10072700D005D004D003D002D001D000D0D0D082E1
:07073700D083D0F0D0E032C6
:10073E0053B3FB43B40453B3FD43B40253B1FE436E
:10074E00B20153B1FD43B202C292C291C280C281C4
:10075E0053DF3F538EBF43DF07E4F5D175D9E2D2A5
:10076E00DED2DF43DE0143DE0243DE0843DE10222B
:1003E200EF14601814601D14602214602714605208
:1003F2002405707BE4F5D28DDAD2DE22E4F5D38DCA
:10040200DBD2DE22E4F5D48DDCD2DE22E4F5D58D1A
:10041200DDD2DE22A2AF9200C2AF75C7AA75C75560
:10042200439101A20092AFE4F5C48DCCA2AF920039
:10043200C2AF75C7AA75C7555391FEA20092AFD23B
:10044200DE22A2AF9200C2AF75C7AA75C75543910B
:1004520001A20092AFE4F5C58DCDA2AF9200C2AF6A
:1004620075C7AA75C7555391FEA20092AFD2DE227C
:0F0B1100EF700443DE0122EFB4010343DE022242
:100ABA00EF700653DEFED29222EFB4010553DEFD3B
:030ACA00D29122A4
:1002C2000204F0E493A3F8E493A34003F68001F25E
:1002D20008DFF48029E493A3F85407240CC8C3333D
:1002E200C4540F4420C8834004F456800146F6DF0C
:1002F200E4800B010204081020408090003EE47E5E
:10030200019360BCA3FF543F30E509541FFEE49300
:10031200A360010ECF54C025E060A840B8E493A3C7
:10032200FAE493A3F8E493A3C8C582C8CAC583CAF2
:10033200F0A3C8C582C8CAC583CADFE9DEE780BEAA
:01007D000082
:10008600E709F608DFFA8046E709F208DFFA803E5C
:1000960088828C83E709F0A3DFFA8032E309F60849
:1000A600DFFA8078E309F208DFFA807088828C83B1
:1000B600E309F0A3DFFA806489828A83E0A3F60865
:1000C600DFFA805889828A83E0A3F208DFFA804C3F
:1000D60080D280FA80C680D4806980F28033801016
:1000E60080A680EA809A80A880DA80E280CA80337F
:1000F60089828A83ECFAE493A3C8C582C8CCC583F7
:10010600CCF0A3C8C582C8CCC583CCDFE9DEE780C6
:100116000D89828A83E493A3F608DFF9ECFAA9F045
:10012600EDFB2289828A83ECFAE0A3C8C582C8CC9B
:10013600C583CCF0A3C8C582C8CCC583CCDFEADEB4
:10014600E880DB89828A83E493A3F208DFF980CC16
:1001560088F0EF60010E4E60C388F0ED2402B4040F
:100166000050B9F582EB2402B4040050AF232345B6
:0601760082239000D67305
:10017C00BB010689828A83E0225002E722BBFE0281
:09018C00E32289828A83E49322B4
:10019500BB010CE58229F582E5833AF583E022501F
:1001A50006E92582F8E622BBFE06E92582F8E22269
:0D01B500E58229F582E5833AF583E4932283
:1001C20075F008758200EF2FFFEE33FECD33CDCCF4
:1001D20033CCC58233C5829BED9AEC99E582984077
:1001E2000CF582EE9BFEED9AFDEC99FC0FD5F0D654
:1001F200E4CEFBE4CDFAE4CCF9A88222B800C1B97E
:100202000059BA002DEC8BF084CFCECDFCE5F0CBBB
:10021200F97818EF2FFFEE33FEED33FDEC33FCEBF4
:1002220033FB10D703994004EB99FB0FD8E5E4F9AF
:10023200FA227818EF2FFFEE33FEED33FDEC33FC9C
:10024200C933C910D7059BE99A4007EC9BFCE99A90
:10025200F90FD8E0E4C9FAE4CCFB2275F010EF2FD5
:10026200FFEE33FEED33FDCC33CCC833C810D707D5
:100272009BEC9AE899400AED9BFDEC9AFCE899F810
:0E0282000FD5F0DAE4CDFBE4CCFAE4C8F922A3
:060290008A838982E473F9
:00000001FF
