:10061A00410055004100570041005200420050007D
:01062A0000CF
:100FEA007F14EFD39400400E7E01EED394004003A9
:060FFA001E80F71F80ECD1
:0110000022CD
:10078400E4900047F0A3F0A3F0A3F0120CF4120DD0
:10079400691211FEEF60FA1211F812002612042AEF
:1007A40012106EEF60097B007A00790B12071C129D
:1007B4000E39EF600F120006E4FF120F88E4FF12F7
:1007C4000FBA8009120E19EF6003120006120E7997
:1007D400EF600C1211E6EF60061211E01210DA124B
:0407E400111880ADBB
:0107E80022EE
:01003A0022A3
:011234002297
:10071C008B308A31893212114B12116CAB30AA31E9
:10072C00A932900002120195B4800A9000011201C6
:10073C00956480601AAB30AA31A932900002120184
:10074C0095FF900001120195FD120333121140AB7D
:10075C0030AA31A932900003120195601A9000035F
:10076C00120195FF120E59AB30AA31A93290000438
:08077C00120195FF120F332258
:10062B0042005E000042005C0000410058004100A7
:07063B00590042005A0000C3
:100979008F398D3AE539700EFD7F0112058AE4FD44
:100989007F0412058A22743C2539F539E53A600F4E
:10099900E4FD7F0112058AAD397F0412058A22AD73
:0E09A900397F0112058AE4FD7F0412058A22BF
:100A6E008F398D3AE539700DFD7F0312058AE4FD4D
:100A7E00FF12058A22743C2539F539E53A600EAD30
:100A8E00397F0312058AE4FDFF12058A22E4FD7FF9
:0C0A9E000312058AAD39E4FF12058A221C
:100F5100E4FD7F0112058AE4FD7F0412058AE4FDA8
:0C0F61007F0312058AE4FDFF12058A22BE
:100006007DFF7F0112058A7DFF7F0412058A7DFF31
:0D0016007F0312058A7DFFE4FF12058A2298
:100F88008F45EF24FE600804700AD294C29322C2EF
:090F980094D29322C294C2932268
:03122200AF4522B3
:100FBA008F44EF14600814700AD290C28322C29040
:080FCA00D28322C290C28322EF
:03122500AF4422B1
:100EF7008E378F38C3E537648094804006E4FD124F
:0E0F0700097922E538F404FF7D0112097922F0
:100F15008E378F38C3E537648094804006E4FD1230
:0E0F25000A6E22E538F404FF7D01120A6E22E6
:04033300AB05AA0765
:10033700E4F533F534F535F53690004BF0EA2480D3
:10034700F534E434FFF533EA2480F536E434FFF579
:1003570035EB6480700302041BEA64807050EBD3B2
:100367009480401EEB2480F536E434FFF535C3E472
:100377009536FFE49535FE7C007D021202298E3307
:100387008F34EBC39480400302041BEBFFC37480DC
:100397009FF534E49400F533C3E49534FFE49533D3
:1003A700FE7C007D021202298E358F368066EAD3E5
:1003B7009480402FEBD39480400FE4F533F534EB72
:1003C7002480F536E434FFF535EBC394805045E4DB
:1003D700F535F536EBFFC374809FF534E49400F5EB
:1003E700338031EAC39480502BEB94804011E4F5BD
:1003F70033F534EBFF74809FF536E49400F535EB65
:10040700C39480500FE4F535F536EB2480F534E4DA
:1004170034FFF533AF34AE33120EF7AF36AE3512C5
:020427000F15AF
:0104290022B0
:100E190090005EE07002A3E0601090005FE024FFA4
:100E2900F090005EE034FFF080037F01227F002212
:0B11400090005E7402F0A374BCF0226B
:100E390090005CE07002A3E0601090005DE024FF88
:100E4900F090005CE034FFF080037F01227F0022F4
:0B114B0090005C7403F0A374E8F02235
:100E5900AE07EED3944050067F01120F8822EEC3ED
:100E690094D040067F02120F8822E4FF120F8822D5
:0711A1009000597401F022D7
:0611E000E4900059F0222A
:0611E600900059E0FF2219
:1010DA00900058E06003E4F0229000587401F02276
:100FD2001211A1121156900058E060067F01120F03
:080FE200BA227F02120FBA22AD
:100F33008F33E533D394405004120FD222E533C3E9
:0E0F430094C04004120FD222E4FF120FBA2213
:100E790090005AE07002A3E0601090005BE024FF4C
:100E8900F090005AE034FFF080037F01227F0022B6
:0B11560090005A7401F0A374F4F02222
:1006420041004000011F014100416D4100445E41F3
:1006520000456441003FAF41003EFF42003C0000C4
:0711A8009000407401F022E9
:0611EC00E4900040F02237
:0611F200900040E0FF2226
:031228008F1F22F3
:03122B00AF1F22D0
:1009B700E490004BF0A3F0A3F0121018E490004B62
:1009C700F090004BE0C39401501B12003E90004D85
:1009D700E02FF090004CE03400F012101890004B1C
:0C09E700E004F080DC90004CE0A3E0FF96
:0109F30022E1
:1010EA007E007C017D631201C21C7D5F1201D42245
:0D1126008F307F01121094AF301210942210
:100D69003095119000417474F09000447456F0A3CA
:100D7900745CF0229000417493F09000447472F016
:050D8900A3747FF022BD
:10042A00C390003DE094C490003CE094095003025C
:10043A0004CFE4F0A3F01211A8120B96900042E444
:10044A00F0A3EFF01209B7900046EFF01211EC900A
:10045A000046E0C394C5501AE075F064A4FFAEF0FC
:10046A00900042E0FCA3E0FD1201D490003EEFF0C0
:10047A00800690003E74FFF090003EE0FF12109458
:10048A00900044E0FF90003EE0C39F5006A374A191
:10049A00F08029900045E0FF90003EE0C39F500B9A
:1004AA00A3E064A1601674A2F08011900041E0FFFD
:1004BA0090003EE0D39F4004A374AFF090003FE069
:1004CA00FF1211262290003DE004F0700690003CD5
:0304DA00E004F04B
:0104DD0022FC
:100DB2007F0CEFD3940040197E82EED39400400E54
:100DC2007D13EDD3940040031D80F71E80EC1F803D
:020DD200E1003E
:010DD40022FC
:03122E00D2AF221A
:03123100C2AF2227
:100B220053B1BF53B2BF53B17F53B27F7598504395
:100B32008920438780438E1053C4DFAB07AA06A9DE
:100B420005A8047F407E427D0F7C0012029BEF04C9
:0B0B5200F404F58DD28ED299D2AC22B3
:071189003098FDAF99C298F8
:01119000223C
:1010940090004B74C3F0A37450F0C2998F993099A7
:0110A400FD4E
:0110A5002228
:10100100AF051DEF601012017CFF121094740129CD
:07101100F9E43AFA80EA223B
:10102F0012017C601012017CFF121094740129F9D7
:06103F00E43AFA80EB2206
:101018007F01EFD39400400E7E11EED3940040037D
:061028001E80F71F80ECA2
:01102E00229F
:100C06008F46D3EF9400EE940040287D11EDD394E7
:100C16000040197C86ECD39400400E7B02EBD39403
:100C26000040031B80F71C80EC1D80E1EF1F700164
:030C36001E80CF4E
:010C39002298
:100DD5007F11EFD3940040197E86EED39400400E28
:100DE5007D02EDD3940040031D80F71E80EC1F802B
:010DF500E11C
:010DF60022DA
:100DF7007FC1EFD3940040197E76EED39400400E66
:100E07007D02EDD3940040031D80F71E80EC1F8008
:010E1700E1F9
:010E180022B7
:030000000204DE19
:1004DE0075C7AA75C75575FD5A75C7AA75C75575DF
:1004EE00FDA5787FE4F6D8FD9000007FFF7E03E443
:0C04FE00F0A3DFFCDEFA75814702054523
:0806620041003A0041002C00A8
:100CF400120BCF120D1B1210C97BFF7A0B795D12F8
:100D0400105B7FC07E127D007C00120B221209361C
:070D140012122E12121A2226
:011235002296
:04120E00120C6D222F
:100C9C00900039E06002E4F090002FE0B40117A35B
:100CAC00E0701390003B04F090002EE004F070060E
:0D0CBC0090002DE004F090002FE0A3F02246
:041212001210FA229A
:100FA100C390002EE094E890002DE094034007E404
:090FB100F0A3F07F01227F002271
:0711910090003BE0FFE4F0D9
:011198002234
:04121600121180220F
:100EB900AE07EEC3940440037FFF22EE25E0243100
:0F0EC900F582E43400F583ECF0A3EDF0AF0622E0
:1010A600EF25E02431F582E43400F583E0FEA3E089
:0210B600FF2217
:100C3A00EF14601314601914601F240370227F07D5
:100C4A001208478F478019E4FF1211338F4780102B
:100C5A007F051207E98F4780077F071207E98F4749
:020C6A00AF4792
:010C6C002265
:08119900AD07E4FF12117722FB
:1009F4008B418A428943EF14601524FA601B14600A
:100A04002224087027AB41AA42A9431211CB22AB7E
:100A140041AA42A9431211D222AB41AA42A94312CC
:0D0A240011BD22AB41AA42A9431211C42208
:0711AF0090003A7401F022E8
:0611F800E490003AF02231
:0611FE0090003AE0FF2220
:100B5D0090002CE0C3940A5005E004F08011E4905D
:100B6D00002CF01211AF121045EF600312121E127D
:100B7D0011F2EF7013120AAAD3EF94B4EE94004061
:080B8D0004120ED822120F6DB4
:010B9500223D
:10066A000327000000032A000000032D00000003F6
:09067A002100000003240000002F
:100D1B0053B3EF43B410C29453B3F743B408C29325
:100D2B0053B3FE43B401C29053B1F743B208C2832D
:070D3B0053B3DF53B4DF22C4
:1007E900EFB4080050559007F6F828287302080E50
:1007F90002081502081C02082302082A020831020D
:10080900083802083FA280E433FE802FA281E43336
:10081900FE8028A282E433FE8021A283E433FE8095
:100829001AA284E433FE8013A285E433FE800CA26D
:0D08390086E433FE8005A287E433FEAF069F
:01084600228F
:10084700EFB408005055900854F828287302086C34
:1008570002087302087A02088102088802088F02D8
:10086700089602089DA290E433FE802FA291E433FC
:10087700FE8028A292E433FE8021A293E433FE8017
:100887001AA294E433FE8013A295E433FE800CA2EF
:0D08970096E433FE8005A297E433FEAF0621
:0108A4002231
:0C113300E4FEEF7005A2B0E433FEAF064E
:01113F00228D
:09117700EF7005ED24FF92A022A7
:0711B6008B278A28892922FA
:0711BD008B2A8A2B892C22EA
:0711C4008B2D8A2E892F22DA
:0711CB008B218A22892322F7
:0711D2008B248A25892622E7
:03003B0002069E1C
:10069E00C0E0C0F0C083C082C0D075D000C000C022
:0D06AE0001C002C003C004C005C006C007A3
:1006BB0085EC3BE53B30E411E528452945276033C4
:1006CB00AA28A92912032D802AE53B30E511E52B39
:1006DB00452C452A601DAA2BA92C12032D8014E54D
:1006EB003B30E60FE52E452F452D6007AA2EA92F8F
:0606FB0012032D75EC0056
:10070100D007D006D005D004D003D002D001D0004C
:0B071100D0D0D082D083D0F0D0E032F6
:030003000208EF01
:1008EF00C0E0C0F0C083C082C0D075D000C000C0CF
:1008FF0001C002C003C004C005C006C007E5224501
:10090F002345216007AA22A92312032DD007D00661
:10091F00D005D004D003D002D001D000D0D0D082E7
:07092F00D083D0F0D0E032CC
:05068300033C00000033
:1010B8005389F0438901538EF7E4F58CF58AD28C75
:0110C8002205
:0F10FA00C28C858C3F858A40D28CAE3FAF40229E
:10105B008B3C8A3D893E75C40275C6FF75C5384306
:03106B009C0222C2
:04121A0043C408229F
:08118000AFC6EFFEADC5EDFFA7
:011188002244
:030083000208A5CB
:1008A500C0E0C0F0C083C082C0D075D000C000C019
:1008B50001C002C003C004C005C006C00753C4EF91
:1008C500E53D453E453C6007AA3DA93E12032DD0B6
:1008D50007D006D005D004D003D002D001D000D077
:0A08E500D0D082D083D0F0D0E032F2
:0B06880041000100010A000208000010
:100A3100E490002AF053B1BF53B2BF53B17F53B218
:100A41007F759850438920438780438E1053C4DFBC
:100A51007B807A25F9F87F407E427D0FFC12029B54
:0C0A6100EF04F404F58DD28ED299D2ACD3
:010A6D002266
:100C6D00EDD394145007900000EDF0800690000035
:100C7D007414F0900000E0FF7E0078167C007D017A
:0F0C8D00120156900016E0F599E490002BF0222A
:10106E00900001E090004BF0E4900001F090004BF6
:02107E00E0FF91
:01108000224D
:0711D9009000017401F022F7
:100D8E0075080075090AE50AC394145016740B25EC
:100D9E000AF8A607E50AB40A08E50BB466031211B1
:040DAE00D9050A2237
:04121E00E4F50A22C7
:10104500E5094508600AE5091509700215088003D8
:061055007F01227F002252
:03002300020CC903
:100CC900C0E0C083C082C0D075D000C000C007306A
:100CD9009807C298AF99120D8E309902C299D00720
:0B0CE900D000D0D0D082D083D0E03209
:100BCF0075C7AA75C75575AA06A2AF9200C2AF75B1
:100BDF00C7AA75C75543AA40A20092AFE5AA44BF62
:100BEF00F460F9A2AF9200C2AF75C7AA75C755439B
:070BFF00AA80A20092AF22C0
:10002600A2AF9200C2AF75C7AA75C75543AA40A230
:040036000092AF2263
:1009360053B3FB43B40453B3FD43B40253B1FE4374
:10094600B20153B1FD43B202C292C291C280C281CA
:1009560053DF3F538EBF43DF0253DFFAE4F5D17511
:10096600D9BAD2DED2DF43DE0143DE0243DE0843DC
:03097600DE10226E
:100F6D0043DE0143DE0243DE0843DE10D2DF121200
:0B0F7D0022120F88121225120FBA2258
:100ED800C2DF53DEFE53DEFD53DEF753DEEFC29270
:0F0EE800C291C280C281C294C293C290C28322BF
:10058A00EF14601814601D1460221460271460525E
:10059A002405707BE4F5D28DDAD2DE22E4F5D38D20
:1005AA00DBD2DE22E4F5D48DDCD2DE22E4F5D58D71
:1005BA00DDD2DE22A2AF9200C2AF75C7AA75C755B7
:1005CA00439101A20092AFE4F5C48DCCA2AF920090
:1005DA00C2AF75C7AA75C7555391FEA20092AFD292
:1005EA00DE22A2AF9200C2AF75C7AA75C755439162
:1005FA0001A20092AFE4F5C58DCDA2AF9200C2AFC1
:10060A0075C7AA75C7555391FEA20092AFD2DE22D2
:0F110900EF700443DE0122EFB4010343DE022244
:10108100EF700653DEFED29222EFB4010553DEFD6E
:03109100D29122D7
:0A069300420060000042006203E82C
:1010C90053B37F43B480D29753ACFE43AD01D2B042
:0110D90022F4
:05120400C297C2B022F8
:05120900D297D2B022D3
:0B11610030970412120422121209221F
:100E9900900060E07002A3E06010900061E024FF20
:100EA900F0900060E034FFF080037F01227F002290
:0B116C00900060740BF0A374B8F02238
:100D4200900062E07002A3E0600F900063E024FF75
:100D5200F0900062E034FFF0229000627403F0A38E
:070D620074E8F01211612298
:0E111800120E99EF6004120D422212120422F0
:011236002295
:100AAA0053E8F043E80543B11053B2EFE4F5F643D7
:100ABA00F62043E101C2EFD2EE30EFFDAFC3EF758E
:100ACA00F010A4ADC27C002DFEEC35F090004BF086
:0B0ADA00A3CEF090004BE0FEA3E0FF75
:010AE50022EE
:100AE60053E8F043E80443B12053B2DFE4F5F6439C
:100AF600F61043E101C2EFD2EE30EFFDAFC3EF7562
:100B0600F010A4ADC27C002DFEEC35F0900064F030
:0B0B1600A3CEF0900064E0FEA3E0FF1F
:010B210022B1
:10003E0053E8F043E80443B12053B2DFE4F5F6434E
:10004E00F61043E101C2EFD2EE30EFFDAFC3EF7514
:10005E00F010A4ADC27C002DFEEC35F090004EF0F9
:10006E00A3CEF090004EE0C4F854F0C868A3E0C4EC
:04007E00540F48FFD4
:01008200225B
:100B960043E80853E8F843E101C2EFD2EE30EFFD37
:100BA600AFC3EF75F010A4ADC27C002DFEEC35F09E
:100BB60090004BF0A3CEF090004BE0C4F854F0C880
:080BC60068A3E0C4540F48FFCE
:010BCE002204
:10050A00020784E493A3F8E493A34003F68001F27C
:10051A0008DFF48029E493A3F85407240CC8C333F2
:10052A00C4540F4420C8834004F456800146F6DFC1
:10053A00E4800B010204081020408090061AE47E31
:10054A00019360BCA3FF543F30E509541FFEE493B6
:10055A00A360010ECF54C025E060A840B8E493A37D
:10056A00FAE493A3F8E493A3C8C582C8CAC583CAA8
:10057A00F0A3C8C582C8CAC583CADFE9DEE780BE60
:01069D00005C
:10008600E709F608DFFA8046E709F208DFFA803E5C
:1000960088828C83E709F0A3DFFA8032E309F60849
:1000A600DFFA8078E309F208DFFA807088828C83B1
:1000B600E309F0A3DFFA806489828A83E0A3F60865
:1000C600DFFA805889828A83E0A3F208DFFA804C3F
:1000D60080D280FA80C680D4806980F28033801016
:1000E60080A680EA809A80A880DA80E280CA80337F
:1000F60089828A83ECFAE493A3C8C582C8CCC583F7
:10010600CCF0A3C8C582C8CCC583CCDFE9DEE780C6
:100116000D89828A83E493A3F608DFF9ECFAA9F045
:10012600EDFB2289828A83ECFAE0A3C8C582C8CC9B
:10013600C583CCF0A3C8C582C8CCC583CCDFEADEB4
:10014600E880DB89828A83E493A3F208DFF980CC16
:1001560088F0EF60010E4E60C388F0ED2402B4040F
:100166000050B9F582EB2402B4040050AF232345B6
:0601760082239000D67305
:10017C00BB010689828A83E0225002E722BBFE0281
:09018C00E32289828A83E49322B4
:10019500BB010CE58229F582E5833AF583E022501F
:1001A50006E92582F8E622BBFE06E92582F8E22269
:0D01B500E58229F582E5833AF583E4932283
:1001C200EF8DF0A4A8F0CF8CF0A428CE8DF0A42E51
:0201D200FE220B
:1001D400BC000BBE0029EF8DF084FFADF022E4CC0F
:1001E400F875F008EF2FFFEE33FEEC33FCEE9DECD8
:1001F400984005FCEE9DFE0FD5F0E9E4CEFD22ED1E
:10020400F8F5F0EE8420D21CFEADF075F008EF2F67
:10021400FFED33FD4007985006D5F0F222C398FD58
:050224000FD5F0EA22F5
:10022900C2D5EC30E709B2D5E4C39DFDE49CFCEEF0
:1002390030E715B2D5E4C39FFFE49EFE1201D4C393
:10024900E49DFDE49CFC80031201D430D507C3E48E
:060259009FFFE49EFE225F
:10025F0075F008758200EF2FFFEE33FECD33CDCC56
:10026F0033CCC58233C5829BED9AEC99E5829840D9
:10027F000CF582EE9BFEED9AFDEC99FC0FD5F0D6B6
:10028F00E4CEFBE4CDFAE4CCF9A88222B800C1B9E0
:10029F000059BA002DEC8BF084CFCECDFCE5F0CB1E
:1002AF00F97818EF2FFFEE33FEED33FDEC33FCEB57
:1002BF0033FB10D703994004EB99FB0FD8E5E4F912
:1002CF00FA227818EF2FFFEE33FEED33FDEC33FCFF
:1002DF00C933C910D7059BE99A4007EC9BFCE99AF3
:1002EF00F90FD8E0E4C9FAE4CCFB2275F010EF2F38
:1002FF00FFEE33FEED33FDCC33CCC833C810D70738
:10030F009BEC9AE899400AED9BFDEC9AFCE899F872
:0E031F000FD5F0DAE4CDFBE4CCFAE4C8F92205
:06032D008A838982E4735B
:00000001FF
