:100C750048656C6C6F205769464920436172200DA9
:020C85000A0063
:10051E00410041004100430041003E0042003C00CA
:01052E0000CC
:100BF5007F14EFD39400400E7E01EED394004003A2
:060C05001E80F71F80ECC9
:010C0B0022C6
:1004B800E490004CF0A3F0A3F01200391209BB7BC2
:1004C800FF7A0C7975120C23120DB7EF60FA120D32
:1004D800B1120C4FEF60097B007A00790B120450BF
:1004E800120A44EF600F120006E4FF120B93E4FFB8
:1004F800120BC58009120A24EF6003120006120AC3
:1005080084EF600C120DABEF6006120DA5120CBB48
:05051800120CE980B3A4
:01051D0022BB
:0100390022A4
:01003A0022A3
:100450008B308A318932120D0F120D30AB30AA3138
:10046000A932900002120195B4800A900001120195
:10047000956480601AAB30AA31A932900002120153
:1004800095FF900001120195FD12063E120D04AB7E
:1004900030AA31A932900003120195601A9000032E
:1004A000120195FF120A64AB30AA31A93290000400
:0804B000120195FF120B3E2220
:10052F0042004A00004200480000410044004100E0
:07053F0045004200460000E8
:100914008F37E5376004243CF537ED600FE4FD7F45
:1009240001120342AD377F0412034222AD377F0127
:0B093400120342E4FD7F041203422284
:10096A008F37E5376004243CF537ED600EAD377FED
:10097A0003120342E4FDFF12034222E4FD7F031245
:0A098A000342AD37E4FF12034222DE
:100B5C00E4FD7F01120342E4FD7F04120342E4FD35
:0C0B6C007F03120342E4FDFF120342224B
:100006007DFF7F011203427DFF7F041203427DFFC5
:0D0016007F031203427DFFE4FF120342222C
:100B93008F42EF24FE600804700AD294C29322C2EB
:090BA30094D29322C294C2932261
:030DDB00AF422202
:100BC5008F41EF14600814700AD290C28322C2903C
:080BD500D28322C290C28322E8
:030DDE00AF412200
:100B02008E358F36C3E535648094804006E4FD124D
:0E0B1200091422E536F404FF7D0112091422B5
:100B20008E358F36C3E535648094804006E4FD122F
:0E0B3000096A22E536F404FF7D0112096A22EB
:02063E00AC0707
:10064000E4FFFEF533F53490004FF0EC2480FFE436
:1006500034FFFEEC2480F534E434FFF533ED6480A0
:100660006027EDD39480400DE4FEFFED2480F53447
:10067000E434FFF533EDC39480500EE4F533F534E4
:10068000C374809DFFE49400FE120B02AF34AE33BE
:03069000120B202A
:010693002244
:100A240090004AE07002A3E0601090004BE024FFC5
:100A3400F090004AE034FFF080037F01227F00221F
:0B0D040090004A7402F0A374BCF022BF
:100A4400900048E07002A3E06010900049E024FFA9
:100A5400F0900048E034FFF080037F01227F002201
:0B0D0F009000487403F0A374E8F02289
:100A6400AE07EED3944050067F01120B9322EEC3DF
:100A740094D040067F02120B9322E4FF120B9322C0
:070D6D009000457401F02223
:060DA500E4900045F0227D
:060DAB00900045E0FF226C
:100CBB00900044E06003E4F0229000447401F022C1
:100BDD00120D6D120D1A900044E060067F01120B8C
:080BED00C5227F02120BC52294
:100B3E008F33E533D394405004120BDD22E533C3DB
:0E0B4E0094C04004120BDD22E4FF120BC522FE
:100A8400900046E07002A3E06010900047E024FF6D
:100A9400F0900046E034FFF080037F01227F0022C3
:0B0D1A009000467402F0A37458F02211
:030DE100D2AF226C
:030DE400C2AF2279
:1008170053B1BF53B2BF53B17F53B27F75985043A3
:100827008920438780438E1053C4DFAB07AA06A9EC
:1008370005A8047F407E427D0F7C001201FEEF0475
:0B084700F404F58DD28ED299D2AC22C1
:070D4D003098FDAF99C29838
:010D5400227C
:080D5500C2998F993099FD222B
:100C0C00AF051DEF601012017CFF120D5574012908
:070C1C00F9E43AFA80EA2234
:100C230012017C601012017CFF120D55740129F929
:060C3300E43AFA80EB2216
:0300000002029663
:1002960075C7AA75C75575FD5A75C7AA75C7557529
:1002A600FDA5787FE4F6D8FD9000007FFF7E03E48D
:0C02B600F0A3DFFCDEFA7581420202FDBD
:0805460041003A0041002C00C5
:1009BB00120A03120CAA7BFF7A0879851200267F94
:1009CB00C07E127D007C0012081712003E120DE152
:0409DB00120DD32204
:01008100225C
:040DC7001208B82234
:1008E700900039E06002E4F090002FE0B40117A314
:1008F700E0701390003B04F090002EE004F07006C7
:0D09070090002DE004F090002FE0A3F022FE
:040DCB00120CCB2219
:100BAC00C390002EE094E890002DE094034007E4FD
:090BBC00F0A3F07F01227F00226A
:070D5D0090003BE0FFE4F011
:010D6400226C
:040DCF00120D44229B
:100AC400AE07EEC3940440037FFF22EE25E02431F9
:0F0AD400F582E43400F583ECF0A3EDF0AF0622D9
:100C8700EF25E02431F582E43400F583E0FEA3E0AC
:020C9700FF223A
:10085200EF14601314601914601F240370227F07C1
:100862001205E08F1F8019E4FF120CF78F1F801012
:100872007F051205828F1F80077F071205828F1F57
:02088200AF1FA6
:010884002251
:080D6500AD07E4FF120D3B2273
:100725008B3E8A3F8940EF14601524FA601B1460E4
:100735002224087027AB3EAA3FA940120D9022AB98
:100745003EAA3FA940120D9722AB3EAA3FA94012EF
:0D0755000D8222AB3EAA3FA940120D892261
:070D740090003A7401F02227
:060DB100E490003AF0227C
:060DB70090003AE0FF226B
:1008850090002CE0C3940A5005E004F08011E49038
:10089500002CF0120D74120C39EF6003120DD712F3
:1008A500079FD3EF94C8EE94004004120AE3221286
:0208B5000B78BE
:0108B700221E
:10054E000327000000032A000000032D0000000313
:09055E002100000003240000004C
:100A030053B3EF43B410C29453B3F743B408C29340
:100A130053B3FE43B401C29053B1F743B208C28348
:010A230022B0
:10058200EFB40800505590058FF82828730205A78C
:100592000205AE0205B50205BC0205C30205CA0288
:1005A20005D10205D8A280E433FE802FA281E43374
:1005B200FE8028A282E433FE8021A283E433FE80FF
:1005C2001AA284E433FE8013A285E433FE800CA2D7
:0D05D20086E433FE8005A287E433FEAF0609
:0105DF0022F9
:1005E000EFB4080050559005EDF828287302060571
:1005F00002060C02061302061A020621020628024F
:10060000062F020636A290E433FE802FA291E43337
:10061000FE8028A292E433FE8021A293E433FE8080
:100620001AA294E433FE8013A295E433FE800CA258
:0D06300096E433FE8005A297E433FEAF068A
:01063D00229A
:0C0CF700E4FEEF7005A2B0E433FEAF068F
:010D030022CD
:090D3B00EF7005ED24FF92A022E7
:070D7B008B278A2889292239
:070D82008B2A8A2B892C2229
:070D89008B2D8A2E892F2219
:070D90008B218A2289232236
:070D97008B248A2589262226
:03003B000203D2EB
:1003D200C0E0C0F0C083C082C0D075D000C000C0F1
:0D03E20001C002C003C004C005C006C00772
:1003EF0085EC38E53830E411E52845294527603399
:1003FF00AA28A929120290802AE53830E511E52BA9
:10040F00452C452A601DAA2BA92C1202908014E5B9
:10041F003830E60FE52E452F452D6007AA2EA92F60
:06042F0012029075EC00C2
:10043500D007D006D005D004D003D002D001D0001B
:0B044500D0D0D082D083D0F0D0E032C5
:030003000206DE14
:1006DE00C0E0C0F0C083C082C0D075D000C000C0E2
:1006EE0001C002C003C004C005C006C007E5224514
:1006FE002345216007AA22A923120290D007D00613
:10070E00D005D004D003D002D001D000D0D0D082FA
:07071E00D083D0F0D0E032DF
:05056700033900000053
:100C99005389F0438901538EF7E4F58CF58AD28C98
:010CA9002228
:0F0CCB00C28C858C3C858A3DD28CAE3CAF3D22DD
:100026008B398A3A893B75C40275C6FF75C5384354
:030036009C022207
:040DD30043C40822EB
:080D4400AFC6EFFEADC5EDFFE7
:010D4C002284
:03008300020694DE
:10069400C0E0C0F0C083C082C0D075D000C000C02C
:1006A40001C002C003C004C005C006C00753C4EFA4
:1006B400E53A453B45396007AA3AA93B120290D076
:1006C40007D006D005D004D003D002D001D000D08A
:0A06D400D0D082D083D0F0D0E03205
:0B056C0041000100010A00020800002D
:10076200E490002AF053B1BF53B2BF53B17F53B2EA
:100772007F759850438920438780438E1053C4DF8E
:100782007B807A25F9F87F407E427D0FFC1201FEC4
:0C079200EF04F404F58DD28ED299D2ACA5
:01079E002238
:1008B800EDD394145007900000EDF08006900000EE
:1008C8007414F0900000E0FF7E0078167C007D0133
:0F08D800120156900016E0F599E490002BF022E3
:100C4F00900001E090004FF0E4900001F090004F11
:020C5F00E0FFB4
:010C61002270
:070D9E009000017401F02236
:1009DF0075080075090AE50AC394145016740B259F
:1009EF000AF8A607E50AB40A08E50BB46603120D68
:0409FF009E050A2225
:040DD700E4F50A2213
:100C3900E5094508600AE5091509700215088003E8
:060C49007F01227F002262
:0300230002093F90
:10093F00C0E0C083C082C0D075D000C000C00730F7
:10094F009807C298AF991209DF309902C299D00760
:0B095F00D000D0D0D082D083D0E03296
:10003E0053B3FB43B40453B3FD43B40253B1FE4375
:10004E00B20153B1FD43B202C292C291C280C281CB
:10005E0053DF3F538EBF43DF0253DFFAE4F5D17512
:10006E00D9BAD2DED2DF43DE0143DE0243DE0843DD
:03007E00DE10226F
:100B780043DE0143DE0243DE0843DE10D2DF120DFE
:0B0B8800DB120B93120DDE120BC522D6
:100AE300C2DF53DEFE53DEFD53DEF753DEEFC29269
:0F0AF300C291C280C281C294C293C290C28322B8
:10034200EF14601814601D146022146027146052A8
:100352002405707BE4F5D28DDAD2DE22E4F5D38D6A
:10036200DBD2DE22E4F5D48DDCD2DE22E4F5D58DBB
:10037200DDD2DE22A2AF9200C2AF75C7AA75C75501
:10038200439101A20092AFE4F5C48DCCA2AF9200DA
:10039200C2AF75C7AA75C7555391FEA20092AFD2DC
:1003A200DE22A2AF9200C2AF75C7AA75C7554391AC
:1003B20001A20092AFE4F5C58DCDA2AF9200C2AF0B
:1003C20075C7AA75C7555391FEA20092AFD2DE221D
:0F0CDA00EF700443DE0122EFB4010343DE022278
:100C6200EF700653DEFED29222EFB4010553DEFD91
:030C7200D29122FA
:0A057700420051000042005303E867
:100CAA0053B37F43B480D29753ACFE43AD01D2B065
:010CBA002217
:050DBD00C297C2B02244
:050DC200D297D2B0221F
:0B0D2500309704120DBD22120DC222F7
:100AA400900051E07002A3E06010900052E024FF37
:100AB400F0900051E034FFF080037F01227F002298
:0B0D3000900051740BF0A374B8F02287
:10099400900053E07002A3E0600F900054E024FF45
:1009A400F0900053E034FFF0229000537403F0A35E
:0709B40074E8F0120D25228A
:0E0CE900120AA4EF600412099422120DBD221B
:01008200225B
:10079F0053E8F043E80543B11053B2EFE4F5F643E5
:1007AF00F62043E101C2EFD2EE30EFFDAFC3EF759C
:1007BF00F010A4ADC27C002DFEEC35F090004FF090
:0B07CF00A3CEF090004FE0FEA3E0FF7F
:0107DA0022FC
:1007DB0053E8F043E80443B12053B2DFE4F5F643AA
:1007EB00F61043E101C2EFD2EE30EFFDAFC3EF7570
:1007FB00F010A4ADC27C002DFEEC35F0900055F04E
:0B080B00A3CEF0900055E0FEA3E0FF3C
:0108160022BF
:1002C2000204B8E493A3F8E493A34003F68001F296
:1002D20008DFF48029E493A3F85407240CC8C3333D
:1002E200C4540F4420C8834004F456800146F6DF0C
:1002F200E4800B010204081020408090051EE47E79
:10030200019360BCA3FF543F30E509541FFEE49300
:10031200A360010ECF54C025E060A840B8E493A3C7
:10032200FAE493A3F8E493A3C8C582C8CAC583CAF2
:10033200F0A3C8C582C8CAC583CADFE9DEE780BEAA
:010581000079
:10008600E709F608DFFA8046E709F208DFFA803E5C
:1000960088828C83E709F0A3DFFA8032E309F60849
:1000A600DFFA8078E309F208DFFA807088828C83B1
:1000B600E309F0A3DFFA806489828A83E0A3F60865
:1000C600DFFA805889828A83E0A3F208DFFA804C3F
:1000D60080D280FA80C680D4806980F28033801016
:1000E60080A680EA809A80A880DA80E280CA80337F
:1000F60089828A83ECFAE493A3C8C582C8CCC583F7
:10010600CCF0A3C8C582C8CCC583CCDFE9DEE780C6
:100116000D89828A83E493A3F608DFF9ECFAA9F045
:10012600EDFB2289828A83ECFAE0A3C8C582C8CC9B
:10013600C583CCF0A3C8C582C8CCC583CCDFEADEB4
:10014600E880DB89828A83E493A3F208DFF980CC16
:1001560088F0EF60010E4E60C388F0ED2402B4040F
:100166000050B9F582EB2402B4040050AF232345B6
:0601760082239000D67305
:10017C00BB010689828A83E0225002E722BBFE0281
:09018C00E32289828A83E49322B4
:10019500BB010CE58229F582E5833AF583E022501F
:1001A50006E92582F8E622BBFE06E92582F8E22269
:0D01B500E58229F582E5833AF583E4932283
:1001C20075F008758200EF2FFFEE33FECD33CDCCF4
:1001D20033CCC58233C5829BED9AEC99E582984077
:1001E2000CF582EE9BFEED9AFDEC99FC0FD5F0D654
:1001F200E4CEFBE4CDFAE4CCF9A88222B800C1B97E
:100202000059BA002DEC8BF084CFCECDFCE5F0CBBB
:10021200F97818EF2FFFEE33FEED33FDEC33FCEBF4
:1002220033FB10D703994004EB99FB0FD8E5E4F9AF
:10023200FA227818EF2FFFEE33FEED33FDEC33FC9C
:10024200C933C910D7059BE99A4007EC9BFCE99A90
:10025200F90FD8E0E4C9FAE4CCFB2275F010EF2FD5
:10026200FFEE33FEED33FDCC33CCC833C810D707D5
:100272009BEC9AE899400AED9BFDEC9AFCE899F810
:0E0282000FD5F0DAE4CDFBE4CCFAE4C8F922A3
:060290008A838982E473F9
:00000001FF
