:100B2F0048656C6C6F205769464920436172200DF0
:020B3F000A00AA
:1005CA00410040004100420041003D0042003B0022
:0105DA000020
:100A82007F14EFD39400400E7E01EED39400400316
:060A92001E80F71F80EC3E
:010A9800223B
:10061D00E490004BF01200391208E97BFF7A0B7958
:10062D002F120ADD120C46EF60FA120C40120B0964
:10063D00EF60097B007A00790B120450120972EFFA
:10064D00600F120006E4FF120A99E4FF120AC78038
:0F065D0009120952EF6003120006120B8280C5CA
:01066C00226B
:0100390022A4
:01003A0022A3
:100450008B308A318932120BB5120BC0AB30AA3106
:10046000A932900002120195B4800A900001120195
:10047000956480601AAB30AA31A932900002120153
:1004800095FF900001120195FD120574120BAAABA5
:1004900030AA31A932900003120195601A9000032E
:1004A000120195FF120992AB30AA31A932900004D3
:0804B000120195FF1209B222AE
:0A05DB00420045000042004300000A
:100842008F37E53760042450F537ED600FE4FD7F04
:1008520001120342AD377F0412034222AD377F01FA
:0B086200120342E4FD7F041203422257
:100898008F37E53760042450F537ED600EAD377FAC
:1008A80003120342E4FDFF12034222E4FD7F031218
:0A08B8000342AD37E4FF12034222B1
:100A4D00E4FD7F01120342E4FD7F04120342E4FD45
:0C0A5D007F03120342E4FDFF120342225B
:100006007DFF7F011203427DFF7F041203427DFFC5
:0D0016007F031203427DFFE4FF120342222C
:100A9900EF24FE600804700AD285C29522C285D26D
:070AA9009522C285C29522CF
:100AC700EF14600814700AD290C28322C290D283B6
:060AD70022C290C283223E
:100A11008E358F36C3E535648094804006E4FD123F
:0E0A2100084222E536F404FF7D01120842224D
:100A2F008E358F36C3E535648094804006E4FD1221
:0E0A3F00089822E536F404FF7D011208982283
:02057400AC07D2
:10057600E4FFFEF533F53490004CF0EC2480FFE404
:1005860034FFFEEC2480F534E434FFF533ED64806B
:100596006027EDD39480400DE4FEFFED2480F53412
:1005A600E434FFF533EDC39480500EE4F533F534AF
:1005B600C374809DFFE49400FE120A11AF34AE337B
:0305C600120A2FE7
:0105C900220F
:10095200900045E07002A3E06010900046E024FFA2
:10096200F0900045E034FFF080037F01227F0022F7
:0B0BAA009000457401F0A374F4F022E9
:10097200900043E07002A3E06010900044E024FF86
:10098200F0900043E034FFF080037F01227F0022D9
:0B0BB5009000437403F0A374E8F022EA
:10099200AE07EED3944050067F01120A9922EEC3AD
:1009A20094D040067F02120A9922E4FF120A992289
:1009B200AE07EED3944050067F01120AC722EEC35F
:1009C20094C040067F02120AC722E4FF120AC7221D
:030C5C00D2AF22F2
:030C5F00C2AF22FF
:1007780053B1BF53B2BF53B17F53B27F7598504343
:100788008920438780438E1053C4DFAB07AA06A98C
:1007980005A8047F407E427D0F7C001201FEEF0415
:0B07A800F404F58DD28ED299D2AC2261
:070BEF003098FDAF99C29898
:010BF60022DC
:080BF700C2998F993099FD228B
:100AB000AF051DEF601012017CFF120BF7740129C6
:070AC000F9E43AFA80EA2292
:100ADD0012017C601012017CFF120BF7740129F9D1
:060AED00E43AFA80EB225E
:0300000002029663
:1002960075C7AA75C75575FD5A75C7AA75C7557529
:1002A600FDA5787FE4F6D8FD9000007FFF7E03E48D
:0C02B600F0A3DFFCDEFA7581400202FDBF
:0405E5004100390098
:1008E900120931120BDD7BFF7A0B79901200267FFA
:1008F900C07E127D007C0012077812003E120C5C4B
:04090900120C542256
:01008200225B
:04007E001207E6225D
:10081500900038E06002E4F090002EE0B40117A3E8
:10082500E0701390003A04F090002DE004F070069B
:0D08350090002CE004F090002EE0A3F022D3
:040C4C00120B642201
:100A6900C390002DE094E890002CE094034007E443
:090A7900F0A3F07F01227F0022AE
:070BFF0090003AE0FFE4F072
:010C060022CB
:040C5000120BD4228D
:1009F200AE07EEC3940440037FFF22EE25E02430CD
:0F0A0200F582E43400F583ECF0A3EDF0AF0622AB
:100B4100EF25E02430F582E43400F583E0FEA3E0F4
:020B5100FF2281
:1007B300EF14601314601914601F240370227F0761
:1007C3001205168F1F8019E4FF120B9D8F1F8010D7
:1007D3007F051204B88F1F80077F071204B88F1F8D
:0207E300AF1F46
:0107E50022F1
:080C0700AD07E4FF120BCB2244
:1006FE008B3E8A3F8940EF14601524FA601B14600C
:10070E002224087027AB3EAA3FA940120C2B22AB25
:10071E003EAA3FA940120C3222AB3EAA3FA940127C
:0D072E000C1D22AB3EAA3FA940120C242254
:070C0F009000397401F0228E
:060C4000E4900039F022EF
:060C4600900039E0FF22DE
:0D0B9000120C0F120AF3EF6003120C582232
:1005E9000327000000032A000000032D0000000378
:0905F900210000000324000000B1
:1009310053B1DF43B220C28553B3DF43B420C29524
:1009410053B3FE43B401C29053B1F743B208C2831B
:010951002283
:1004B800EFB4080050559004C5F82828730204DDED
:1004C8000204E40204EB0204F20204F90205000249
:1004D800050702050EA280E433FE802FA281E433D3
:1004E800FE8028A282E433FE8021A283E433FE80CA
:1004F8001AA284E433FE8013A285E433FE800CA2A2
:0D05080086E433FE8005A287E433FEAF06D3
:0105150022C3
:10051600EFB408005055900523F828287302053BD0
:1005260002054202054902055002055702055E0210
:10053600056502056CA290E433FE802FA291E43398
:10054600FE8028A292E433FE8021A293E433FE804B
:100556001AA294E433FE8013A295E433FE800CA223
:0D05660096E433FE8005A297E433FEAF0655
:010573002265
:0C0B9D00E4FEEF7005A2B0E433FEAF06EA
:010BA9002229
:090BCB00EF7005ED24FF92A02259
:070C16008B278A288929229F
:070C1D008B2A8A2B892C228F
:070C24008B2D8A2E892F227F
:070C2B008B218A228923229C
:070C32008B248A258926228C
:03003B000203D2EB
:1003D200C0E0C0F0C083C082C0D075D000C000C0F1
:0D03E20001C002C003C004C005C006C00772
:1003EF0085EC38E53830E411E52845294527603399
:1003FF00AA28A929120290802AE53830E511E52BA9
:10040F00452C452A601DAA2BA92C1202908014E5B9
:10041F003830E60FE52E452F452D6007AA2EA92F60
:06042F0012029075EC00C2
:10043500D007D006D005D004D003D002D001D0001B
:0B044500D0D0D082D083D0F0D0E032C5
:030003000206B73B
:1006B700C0E0C0F0C083C082C0D075D000C000C009
:1006C70001C002C003C004C005C006C007E522453B
:1006D7002345216007AA22A923120290D007D0063A
:1006E700D005D004D003D002D001D000D0D0D08222
:0706F700D083D0F0D0E03207
:050602000339000000B7
:100B53005389F0438901538EF7E4F58CF58AD28CDF
:010B6300226F
:0F0B6400C28C858C3C858A3DD28CAE3CAF3D2245
:100026008B398A3A893B75C40275C6F875C5304363
:030036009C022207
:040C540043C408226B
:080BD400AFC6EFFEADC5EDFF59
:010BDC0022F6
:0300830002066D05
:10066D00C0E0C0F0C083C082C0D075D000C000C053
:10067D0001C002C003C004C005C006C00753C4EFCB
:10068D00E53A453B45396007AA3AA93B120290D09D
:10069D0007D006D005D004D003D002D001D000D0B1
:0A06AD00D0D082D083D0F0D0E0322C
:0B06070041000100010A000208000091
:10073B00E490002AF053B1BF53B2BF53B17F53B211
:10074B007F759850438920438780438E1053C4DFB5
:10075B007B807A25F9F87F407E427D0FFC1201FEEB
:0C076B00EF04F404F58DD28ED299D2ACCC
:01077700225F
:1007E600EDD394145007900000EDF08006900000C1
:1007F6007414F0900000E0FF7E0078167C007D0106
:0F080600120156900016E0F599E490002BF022B5
:100B0900900001E090004CF0E4900001F090004C5E
:020B1900E0FFFB
:010B1B0022B7
:070C39009000017401F0229C
:10090D0075080075090AE50AC394145016740B2571
:10091D000AF8A607E50AB40A08E50BB46603120C3B
:04092D0039050A225C
:040C5800E4F50A2293
:100AF300E5094508600AE509150970021508800330
:060B03007F01227F0022A9
:0300230002086D63
:10086D00C0E0C083C082C0D075D000C000C00730CA
:10087D009807C298AF9912090D309902C299D00705
:0B088D00D000D0D0D082D083D0E03269
:10003E0053B3FB43B40453B3FD43B40253B1FE4375
:10004E00B20153B1FD43B202C292C291C280C281CB
:10005E0053DF3F538EBF43DF07E4F5D175D9CED2C0
:10006E00DED2DF43DE0143DE0243DE0843DE102232
:10034200EF14601814601D146022146027146052A8
:100352002405707BE4F5D28DDAD2DE22E4F5D38D6A
:10036200DBD2DE22E4F5D48DDCD2DE22E4F5D58DBB
:10037200DDD2DE22A2AF9200C2AF75C7AA75C75501
:10038200439101A20092AFE4F5C48DCCA2AF9200DA
:10039200C2AF75C7AA75C7555391FEA20092AFD2DC
:1003A200DE22A2AF9200C2AF75C7AA75C7554391AC
:1003B20001A20092AFE4F5C58DCDA2AF9200C2AF0B
:1003C20075C7AA75C7555391FEA20092AFD2DE221D
:0F0B7300EF700443DE0122EFB4010343DE0222E0
:100B1C00EF700653DEFED29222EFB4010553DEFDD8
:030B2C00D2912241
:0A061200420047000042004903E8DF
:090BDD0053B37F43B480C2972298
:030C6200D2972204
:030C6500C2972211
:090BE600309703C29722D2972236
:1009D200900047E07002A3E06010900048E024FF1E
:1009E200F0900047E034FFF080037F01227F002275
:0B0BC000900047740BF0A374B8F02203
:1008C200900049E07002A3E0600F90004AE024FF2C
:1008D200F0900049E034FFF0229000497403F0A345
:0708E20074E8F0120BE6229E
:0E0B82001209D2EF60041208C222120C622285
:1002C20002061DE493A3F8E493A34003F68001F22F
:1002D20008DFF48029E493A3F85407240CC8C3333D
:1002E200C4540F4420C8834004F456800146F6DF0C
:1002F200E4800B01020408102040809005CAE47ECD
:10030200019360BCA3FF543F30E509541FFEE49300
:10031200A360010ECF54C025E060A840B8E493A3C7
:10032200FAE493A3F8E493A3C8C582C8CAC583CAF2
:10033200F0A3C8C582C8CAC583CADFE9DEE780BEAA
:01061C0000DD
:10008600E709F608DFFA8046E709F208DFFA803E5C
:1000960088828C83E709F0A3DFFA8032E309F60849
:1000A600DFFA8078E309F208DFFA807088828C83B1
:1000B600E309F0A3DFFA806489828A83E0A3F60865
:1000C600DFFA805889828A83E0A3F208DFFA804C3F
:1000D60080D280FA80C680D4806980F28033801016
:1000E60080A680EA809A80A880DA80E280CA80337F
:1000F60089828A83ECFAE493A3C8C582C8CCC583F7
:10010600CCF0A3C8C582C8CCC583CCDFE9DEE780C6
:100116000D89828A83E493A3F608DFF9ECFAA9F045
:10012600EDFB2289828A83ECFAE0A3C8C582C8CC9B
:10013600C583CCF0A3C8C582C8CCC583CCDFEADEB4
:10014600E880DB89828A83E493A3F208DFF980CC16
:1001560088F0EF60010E4E60C388F0ED2402B4040F
:100166000050B9F582EB2402B4040050AF232345B6
:0601760082239000D67305
:10017C00BB010689828A83E0225002E722BBFE0281
:09018C00E32289828A83E49322B4
:10019500BB010CE58229F582E5833AF583E022501F
:1001A50006E92582F8E622BBFE06E92582F8E22269
:0D01B500E58229F582E5833AF583E4932283
:1001C20075F008758200EF2FFFEE33FECD33CDCCF4
:1001D20033CCC58233C5829BED9AEC99E582984077
:1001E2000CF582EE9BFEED9AFDEC99FC0FD5F0D654
:1001F200E4CEFBE4CDFAE4CCF9A88222B800C1B97E
:100202000059BA002DEC8BF084CFCECDFCE5F0CBBB
:10021200F97818EF2FFFEE33FEED33FDEC33FCEBF4
:1002220033FB10D703994004EB99FB0FD8E5E4F9AF
:10023200FA227818EF2FFFEE33FEED33FDEC33FC9C
:10024200C933C910D7059BE99A4007EC9BFCE99A90
:10025200F90FD8E0E4C9FAE4CCFB2275F010EF2FD5
:10026200FFEE33FEED33FDCC33CCC833C810D707D5
:100272009BEC9AE899400AED9BFDEC9AFCE899F810
:0E0282000FD5F0DAE4CDFBE4CCFAE4C8F922A3
:060290008A838982E473F9
:00000001FF
