:100C200048656C6C6F205769464920436172200DFE
:020C30000A00B8
:10057400410041004100430041003E0042003C0074
:010584000076
:100BA0007F14EFD39400400E7E01EED394004003F7
:060BB0001E80F71F80EC1F
:010BB600221C
:10062100E4900044F0A3F0A3F012003912099C7B7E
:10063100FF7A0C7920120BCE120D34EF60FA120DF5
:100641002E120BFAEF60097B007A00790B1204502D
:10065100120A25EF600F120006E4FF120B56E4FFA9
:10066100120B888009120A05EF6003120006120CB2
:030671008480C5BD
:010674002263
:0100390022A4
:01003A0022A3
:100450008B308A318932120CAA120CC0AB30AA310F
:10046000A932900002120195B4800A900001120195
:10047000956480601AAB30AA31A932900002120153
:1004800095FF900001120195FD1205CB120C9FAB58
:1004900030AA31A932900003120195601A9000032E
:1004A000120195FF120A45AB30AA31A9329000041F
:0804B000120195FF120A6522FA
:0A05850042004B0000420049000054
:1008F5008F37E5376004243CF537ED600FE4FD7F65
:1009050001120342AD377F0412034222AD377F0146
:0B091500120342E4FD7F0412034222A3
:10094B008F37E5376004243CF537ED600EAD377F0C
:10095B0003120342E4FDFF12034222E4FD7F031264
:0A096B000342AD37E4FF12034222FD
:100B1F00E4FD7F01120342E4FD7F04120342E4FD72
:0C0B2F007F03120342E4FDFF1203422288
:100006007DFF7F011203427DFF7F041203427DFFC5
:0D0016007F031203427DFFE4FF120342222C
:100B56008F42EF24FE600804700AD294C29322C228
:090B660094D29322C294C293229E
:030D5800AF422285
:100B88008F41EF14600814700AD290C28322C29079
:080B9800D28322C290C2832225
:030D5B00AF412283
:100AE3008E358F36C3E535648094804006E4FD126D
:0E0AF30008F522E536F404FF7D011208F52215
:100B01008E358F36C3E535648094804006E4FD124E
:0E0B1100094B22E536F404FF7D0112094B2248
:0205CB00AC077B
:1005CD00E4FFFEF533F534900047F0EC2480FFE4B2
:1005DD0034FFFEEC2480F534E434FFF533ED648014
:1005ED006027EDD39480400DE4FEFFED2480F534BB
:1005FD00E434FFF533EDC39480500EE4F533F53458
:10060D00C374809DFFE49400FE120AE3AF34AE3351
:03061D00120B01BC
:0106200022B7
:100A050090004BE07002A3E0601090004CE024FFE2
:100A1500F090004BE034FFF080037F01227F00223D
:0B0C9F0090004B7402F0A374BCF02224
:100A2500900049E07002A3E0601090004AE024FFC6
:100A3500F0900049E034FFF080037F01227F00221F
:0B0CAA009000497403F0A374E8F022EE
:100A4500AE07EED3944050067F01120B5622EEC33B
:100A550094D040067F02120B5622E4FF120B562259
:100A6500AE07EED3944050067F01120B8822EEC3E9
:100A750094C040067F02120B8822E4FF120B8822E5
:030D5E00D2AF22EF
:030D6100C2AF22FC
:1007F80053B1BF53B2BF53B17F53B27F75985043C3
:100808008920438780438E1053C4DFAB07AA06A90B
:1008180005A8047F407E427D0F7C001201FEEF0494
:0B082800F404F58DD28ED299D2AC22E0
:070CDD003098FDAF99C298A9
:010CE40022ED
:080CE500C2998F993099FD229C
:100BB700AF051DEF601012017CFF120CE5740129CF
:070BC700F9E43AFA80EA228A
:100BCE0012017C601012017CFF120CE5740129F9F0
:060BDE00E43AFA80EB226C
:0300000002029663
:1002960075C7AA75C75575FD5A75C7AA75C7557529
:1002A600FDA5787FE4F6D8FD9000007FFF7E03E48D
:0C02B600F0A3DFFCDEFA7581420202FDBD
:08058F0041003A0041002C007C
:10099C001209E4120C557BFF7A0879661200267F47
:1009AC00C07E127D007C001207F812003E120D5E14
:0409BC00120D5022A6
:01008100225C
:040D440012089922D6
:1008C800900039E06002E4F090002FE0B40117A333
:1008D800E0701390003B04F090002EE004F07006E6
:0D08E80090002DE004F090002FE0A3F0221E
:040D4800120C662201
:100B6F00C390002EE094E890002DE094034007E43A
:090B7F00F0A3F07F01227F0022A7
:070CED0090003BE0FFE4F082
:010CF40022DD
:040D4C00120CD4228F
:100AA500AE07EEC3940440037FFF22EE25E0243118
:0F0AB500F582E43400F583ECF0A3EDF0AF0622F8
:100C3200EF25E02431F582E43400F583E0FEA3E001
:020C4200FF228F
:10083300EF14601314601914601F240370227F07E0
:100843001205168F1F8019E4FF120C928F1F801060
:100853007F051204B88F1F80077F071204B88F1F0C
:02086300AF1FC5
:010865002270
:080CF500AD07E4FF120CCB2255
:100706008B3E8A3F8940EF14601524FA601B146003
:100716002224087027AB3EAA3FA940120D1922AB2E
:100726003EAA3FA940120D2022AB3EAA3FA9401285
:0D0736000D0B22AB3EAA3FA940120D12226E
:070CFD0090003A7401F0229F
:060D2E00E490003AF022FF
:060D340090003AE0FF22EE
:1008660090002CE0C3940A5005E004F08011E49057
:10087600002CF0120CFD120BE4EF6003120D541263
:100886000780D3EF94C8EE94004004120AC42212E3
:020896000B3B1A
:01089800223D
:100597000327000000032A000000032D00000003CA
:0905A70021000000032400000003
:1009E40053B3EF43B410C29453B3F743B408C29360
:1009F40053B3FE43B401C29053B1F743B208C28368
:010A040022CF
:1004B800EFB4080050559004C5F82828730204DDED
:1004C8000204E40204EB0204F20204F90205000249
:1004D800050702050EA280E433FE802FA281E433D3
:1004E800FE8028A282E433FE8021A283E433FE80CA
:1004F8001AA284E433FE8013A285E433FE800CA2A2
:0D05080086E433FE8005A287E433FEAF06D3
:0105150022C3
:10051600EFB408005055900523F828287302053BD0
:1005260002054202054902055002055702055E0210
:10053600056502056CA290E433FE802FA291E43398
:10054600FE8028A292E433FE8021A293E433FE804B
:100556001AA294E433FE8013A295E433FE800CA223
:0D05660096E433FE8005A297E433FEAF0655
:010573002265
:0C0C9200E4FEEF7005A2B0E433FEAF06F4
:010C9E002233
:090CCB00EF7005ED24FF92A02258
:070D04008B278A28892922B0
:070D0B008B2A8A2B892C22A0
:070D12008B2D8A2E892F2290
:070D19008B218A22892322AD
:070D20008B248A258926229D
:03003B000203D2EB
:1003D200C0E0C0F0C083C082C0D075D000C000C0F1
:0D03E20001C002C003C004C005C006C00772
:1003EF0085EC38E53830E411E52845294527603399
:1003FF00AA28A929120290802AE53830E511E52BA9
:10040F00452C452A601DAA2BA92C1202908014E5B9
:10041F003830E60FE52E452F452D6007AA2EA92F60
:06042F0012029075EC00C2
:10043500D007D006D005D004D003D002D001D0001B
:0B044500D0D0D082D083D0F0D0E032C5
:030003000206BF33
:1006BF00C0E0C0F0C083C082C0D075D000C000C001
:1006CF0001C002C003C004C005C006C007E5224533
:1006DF002345216007AA22A923120290D007D00632
:1006EF00D005D004D003D002D001D000D0D0D0821A
:0706FF00D083D0F0D0E032FF
:0505B00003390000000A
:100C44005389F0438901538EF7E4F58CF58AD28CED
:010C5400227D
:0F0C6600C28C858C3C858A3DD28CAE3CAF3D2242
:100026008B398A3A893B75C40275C6FF75C5384354
:030036009C022207
:040D500043C408226E
:080CD400AFC6EFFEADC5EDFF58
:010CDC0022F5
:03008300020675FD
:10067500C0E0C0F0C083C082C0D075D000C000C04B
:1006850001C002C003C004C005C006C00753C4EFC3
:10069500E53A453B45396007AA3AA93B120290D095
:1006A50007D006D005D004D003D002D001D000D0A9
:0A06B500D0D082D083D0F0D0E03224
:0B05B50041000100010A0002080000E4
:10074300E490002AF053B1BF53B2BF53B17F53B209
:100753007F759850438920438780438E1053C4DFAD
:100763007B807A25F9F87F407E427D0FFC1201FEE3
:0C077300EF04F404F58DD28ED299D2ACC4
:01077F002257
:10089900EDD394145007900000EDF080069000000D
:1008A9007414F0900000E0FF7E0078167C007D0152
:0F08B900120156900016E0F599E490002BF02202
:100BFA00900001E0900047F0E4900001F090004777
:020C0A00E0FF09
:010C0C0022C5
:070D27009000017401F022AD
:1009C00075080075090AE50AC394145016740B25BE
:1009D0000AF8A607E50AB40A08E50BB46603120D87
:0409E00027050A22BB
:040D5400E4F50A2296
:100BE400E5094508600AE50915097002150880033E
:060BF4007F01227F0022B8
:03002300020920AF
:10092000C0E0C083C082C0D075D000C000C0073016
:100930009807C298AF991209C0309902C299D0079E
:0B094000D000D0D0D082D083D0E032B5
:10003E0053B3FB43B40453B3FD43B40253B1FE4375
:10004E00B20153B1FD43B202C292C291C280C281CB
:10005E0053DF3F538EBF43DF0253DFFAE4F5D17512
:10006E00D9BAD2DED2DF43DE0143DE0243DE0843DD
:03007E00DE10226F
:100B3B0043DE0143DE0243DE0843DE10D2DF120D3B
:0B0B4B0058120B56120D5B120B882293
:100AC400C2DF53DEFE53DEFD53DEF753DEEFC29288
:0F0AD400C291C280C281C294C293C290C28322D7
:10034200EF14601814601D146022146027146052A8
:100352002405707BE4F5D28DDAD2DE22E4F5D38D6A
:10036200DBD2DE22E4F5D48DDCD2DE22E4F5D58DBB
:10037200DDD2DE22A2AF9200C2AF75C7AA75C75501
:10038200439101A20092AFE4F5C48DCCA2AF9200DA
:10039200C2AF75C7AA75C7555391FEA20092AFD2DC
:1003A200DE22A2AF9200C2AF75C7AA75C7554391AC
:1003B20001A20092AFE4F5C58DCDA2AF9200C2AF0B
:1003C20075C7AA75C7555391FEA20092AFD2DE221D
:0F0C7500EF700443DE0122EFB4010343DE0222DD
:100C0D00EF700653DEFED29222EFB4010553DEFDE6
:030C1D00D291224F
:0A05C00042004D000042004F03E826
:100C550053B37F43B480D29753ACFE43AD01D2B0BA
:010C6500226C
:050D3A00C297C2B022C7
:050D3F00D297D2B022A2
:0B0CB500309704120D3A22120D3F226E
:100A850090004DE07002A3E0601090004EE024FF5E
:100A9500F090004DE034FFF080037F01227F0022BB
:0B0CC00090004D740BF0A374B8F022FC
:1009750090004FE07002A3E0600F900050E024FF6C
:10098500F090004FE034FFF02290004F7403F0A385
:0709950074E8F0120CB5221A
:0E0C8400120A85EF600412097522120D3A2241
:01008200225B
:1007800053E8F043E80543B11053B2EFE4F5F64304
:10079000F62043E101C2EFD2EE30EFFDAFC3EF75BB
:1007A000F010A4ADC27C002DFEEC35F0900047F0B7
:0B07B000A3CEF0900047E0FEA3E0FFA6
:0107BB00221B
:1007BC0053E8F043E80443B12053B2DFE4F5F643C9
:1007CC00F61043E101C2EFD2EE30EFFDAFC3EF758F
:1007DC00F010A4ADC27C002DFEEC35F0900051F071
:0B07EC00A3CEF0900051E0FEA3E0FF60
:0107F70022DF
:1002C200020621E493A3F8E493A34003F68001F22B
:1002D20008DFF48029E493A3F85407240CC8C3333D
:1002E200C4540F4420C8834004F456800146F6DF0C
:1002F200E4800B0102040810204080900574E47E23
:10030200019360BCA3FF543F30E509541FFEE49300
:10031200A360010ECF54C025E060A840B8E493A3C7
:10032200FAE493A3F8E493A3C8C582C8CAC583CAF2
:10033200F0A3C8C582C8CAC583CADFE9DEE780BEAA
:0105CA000030
:10008600E709F608DFFA8046E709F208DFFA803E5C
:1000960088828C83E709F0A3DFFA8032E309F60849
:1000A600DFFA8078E309F208DFFA807088828C83B1
:1000B600E309F0A3DFFA806489828A83E0A3F60865
:1000C600DFFA805889828A83E0A3F208DFFA804C3F
:1000D60080D280FA80C680D4806980F28033801016
:1000E60080A680EA809A80A880DA80E280CA80337F
:1000F60089828A83ECFAE493A3C8C582C8CCC583F7
:10010600CCF0A3C8C582C8CCC583CCDFE9DEE780C6
:100116000D89828A83E493A3F608DFF9ECFAA9F045
:10012600EDFB2289828A83ECFAE0A3C8C582C8CC9B
:10013600C583CCF0A3C8C582C8CCC583CCDFEADEB4
:10014600E880DB89828A83E493A3F208DFF980CC16
:1001560088F0EF60010E4E60C388F0ED2402B4040F
:100166000050B9F582EB2402B4040050AF232345B6
:0601760082239000D67305
:10017C00BB010689828A83E0225002E722BBFE0281
:09018C00E32289828A83E49322B4
:10019500BB010CE58229F582E5833AF583E022501F
:1001A50006E92582F8E622BBFE06E92582F8E22269
:0D01B500E58229F582E5833AF583E4932283
:1001C20075F008758200EF2FFFEE33FECD33CDCCF4
:1001D20033CCC58233C5829BED9AEC99E582984077
:1001E2000CF582EE9BFEED9AFDEC99FC0FD5F0D654
:1001F200E4CEFBE4CDFAE4CCF9A88222B800C1B97E
:100202000059BA002DEC8BF084CFCECDFCE5F0CBBB
:10021200F97818EF2FFFEE33FEED33FDEC33FCEBF4
:1002220033FB10D703994004EB99FB0FD8E5E4F9AF
:10023200FA227818EF2FFFEE33FEED33FDEC33FC9C
:10024200C933C910D7059BE99A4007EC9BFCE99A90
:10025200F90FD8E0E4C9FAE4CCFB2275F010EF2FD5
:10026200FFEE33FEED33FDCC33CCC833C810D707D5
:100272009BEC9AE899400AED9BFDEC9AFCE899F810
:0E0282000FD5F0DAE4CDFBE4CCFAE4C8F922A3
:060290008A838982E473F9
:00000001FF
