:100BCC0048656C6C6F205769464920436172200D53
:020BDC000A000D
:10057400410041004100430041003E0042003C0074
:010584000076
:100B1F007F14EFD39400400E7E01EED39400400378
:060B2F001E80F71F80ECA0
:010B3500229D
:10062100E4900044F0A3F0A3F01200391208FC7B1F
:10063100FF7A0B79CC120B7A120CE5EF60FA120CEF
:10064100DF120BA6EF60097B007A00790B120450D0
:100651001209D6EF600F120006E4FF120B36E4FF19
:10066100120B6480091209B6EF6003120006120C26
:030671002E80C513
:010674002263
:0100390022A4
:01003A0022A3
:100450008B308A318932120C54120C5FAB30AA31C6
:10046000A932900002120195B4800A900001120195
:10047000956480601AAB30AA31A932900002120153
:1004800095FF900001120195FD1205CB120C49ABAE
:1004900030AA31A932900003120195601A9000032E
:1004A000120195FF1209F6AB30AA31A9329000046F
:0804B000120195FF120A162249
:0A05850042004B0000420049000054
:10087C008F37E53760042432F537ED600FE4FD7FE8
:10088C0001120342AD377F0412034222AD377F01C0
:0B089C00120342E4FD7F04120342221D
:1008D2008F37E53760042432F537ED600EAD377F90
:1008E20003120342E4FDFF12034222E4FD7F0312DE
:0A08F2000342AD37E4FF1203422277
:100ACE00E4FD7F01120342E4FD7F04120342E4FDC4
:0C0ADE007F03120342E4FDFF12034222DA
:100006007DFF7F011203427DFF7F041203427DFFC5
:0D0016007F031203427DFFE4FF120342222C
:100B3600EF24FE600804700AD285C29522C285D2CF
:070B46009522C285C2952231
:100B6400EF14600814700AD290C28322C290D28318
:060B740022C290C28322A0
:100A75008E358F36C3E535648094804006E4FD12DB
:0E0A8500087C22E536F404FF7D0112087C2275
:100A93008E358F36C3E535648094804006E4FD12BD
:0E0AA30008D222E536F404FF7D011208D222AB
:0205CB00AC077B
:1005CD00E4FFFEF533F534900047F0EC2480FFE4B2
:1005DD0034FFFEEC2480F534E434FFF533ED648014
:1005ED006027EDD39480400DE4FEFFED2480F534BB
:1005FD00E434FFF533EDC39480500EE4F533F53458
:10060D00C374809DFFE49400FE120A75AF34AE33BF
:03061D00120A932B
:0106200022B7
:1009B60090004BE07002A3E0601090004CE024FF32
:1009C600F090004BE034FFF080037F01227F00228D
:0B0C490090004B7401F0A374F4F02243
:1009D600900049E07002A3E0601090004AE024FF16
:1009E600F0900049E034FFF080037F01227F00226F
:0B0C54009000497403F0A374E8F02244
:1009F600AE07EED3944050067F01120B3622EEC3AB
:100A060094D040067F02120B3622E4FF120B3622E8
:100A1600AE07EED3944050067F01120B6422EEC35C
:100A260094C040067F02120B6422E4FF120B64227C
:030CFB00D2AF2253
:030CFE00C2AF2260
:1007800053B1BF53B2BF53B17F53B27F759850433B
:100790008920438780438E1053C4DFAB07AA06A984
:1007A00005A8047F407E427D0F7C001201FEEF040D
:0B07B000F404F58DD28ED299D2AC2259
:070C8E003098FDAF99C298F8
:010C9500223C
:080C9600C2998F993099FD22EB
:100B4D00AF051DEF601012017CFF120C9674012988
:070B5D00F9E43AFA80EA22F4
:100B7A0012017C601012017CFF120C96740129F993
:060B8A00E43AFA80EB22C0
:0300000002029663
:1002960075C7AA75C75575FD5A75C7AA75C7557529
:1002A600FDA5787FE4F6D8FD9000007FFF7E03E48D
:0C02B600F0A3DFFCDEFA7581400202FDBF
:08058F0041003A0041002C007C
:1008FC00120995120C7C120AEA7BFF7A0779EE1228
:10090C0000267FC07E127D007C0012078012003E04
:07091C00120CFB120CF32288
:01008200225B
:04007E001208202222
:10084F00900039E06002E4F090002FE0B40117A3AC
:10085F00E0701390003B04F090002EE004F070065F
:0D086F0090002DE004F090002FE0A3F02297
:040CEB00120C0122C4
:100B0600C390002EE094E890002DE094034007E4A3
:090B1600F0A3F07F01227F002210
:070C9E0090003BE0FFE4F0D1
:010CA500222C
:040CEF00120C73224E
:100A5600AE07EEC3940440037FFF22EE25E0243167
:0F0A6600F582E43400F583ECF0A3EDF0AF062247
:100BDE00EF25E02431F582E43400F583E0FEA3E056
:020BEE00FF22E4
:1007BB00EF14601314601914601F240370227F0759
:1007CB001205168F1F8019E4FF120C3C8F1F80102F
:1007DB007F051204B88F1F80077F071204B88F1F85
:0207EB00AF1F3E
:0107ED0022E9
:080CA600AD07E4FF120C6A2205
:100706008B3E8A3F8940EF14601524FA601B146003
:100716002224087027AB3EAA3FA940120CCA22AB7E
:100726003EAA3FA940120CD122AB3EAA3FA94012D5
:0D0736000CBC22AB3EAA3FA940120CC3220E
:070CAE0090003A7401F022EE
:060CDF00E490003AF0224F
:060CE50090003AE0FF223E
:1007EE0090002CE0C3940A5005E004F08011E490D0
:1007FE00002CF0120CAE120B90EF6003120CF712DD
:10080E00094AD3EF94C8EE94004006120AB1120CB6
:01081E0010C9
:01081F0022B6
:100597000327000000032A000000032D00000003CA
:0905A70021000000032400000003
:1009950053B1DF43B220C28553B3DF43B420C295C0
:1009A50053B3FE43B401C29053B1F743B208C283B7
:0109B500221F
:1004B800EFB4080050559004C5F82828730204DDED
:1004C8000204E40204EB0204F20204F90205000249
:1004D800050702050EA280E433FE802FA281E433D3
:1004E800FE8028A282E433FE8021A283E433FE80CA
:1004F8001AA284E433FE8013A285E433FE800CA2A2
:0D05080086E433FE8005A287E433FEAF06D3
:0105150022C3
:10051600EFB408005055900523F828287302053BD0
:1005260002054202054902055002055702055E0210
:10053600056502056CA290E433FE802FA291E43398
:10054600FE8028A292E433FE8021A293E433FE804B
:100556001AA294E433FE8013A295E433FE800CA223
:0D05660096E433FE8005A297E433FEAF0655
:010573002265
:0C0C3C00E4FEEF7005A2B0E433FEAF064A
:010C48002289
:090C6A00EF7005ED24FF92A022B9
:070CB5008B278A2889292200
:070CBC008B2A8A2B892C22F0
:070CC3008B2D8A2E892F22E0
:070CCA008B218A22892322FD
:070CD1008B248A25892622ED
:03003B000203D2EB
:1003D200C0E0C0F0C083C082C0D075D000C000C0F1
:0D03E20001C002C003C004C005C006C00772
:1003EF0085EC38E53830E411E52845294527603399
:1003FF00AA28A929120290802AE53830E511E52BA9
:10040F00452C452A601DAA2BA92C1202908014E5B9
:10041F003830E60FE52E452F452D6007AA2EA92F60
:06042F0012029075EC00C2
:10043500D007D006D005D004D003D002D001D0001B
:0B044500D0D0D082D083D0F0D0E032C5
:030003000206BF33
:1006BF00C0E0C0F0C083C082C0D075D000C000C001
:1006CF0001C002C003C004C005C006C007E5224533
:1006DF002345216007AA22A923120290D007D00632
:1006EF00D005D004D003D002D001D000D0D0D0821A
:0706FF00D083D0F0D0E032FF
:0505B00003390000000A
:100BF0005389F0438901538EF7E4F58CF58AD28C42
:010C000022D1
:0F0C0100C28C858C3C858A3DD28CAE3CAF3D22A7
:100026008B398A3A893B75C40275C6FF75C5384354
:030036009C022207
:040CF30043C40822CC
:080C7300AFC6EFFEADC5EDFFB9
:010C7B002256
:03008300020675FD
:10067500C0E0C0F0C083C082C0D075D000C000C04B
:1006850001C002C003C004C005C006C00753C4EFC3
:10069500E53A453B45396007AA3AA93B120290D095
:1006A50007D006D005D004D003D002D001D000D0A9
:0A06B500D0D082D083D0F0D0E03224
:0B05B50041000100010A0002080000E4
:10074300E490002AF053B1BF53B2BF53B17F53B209
:100753007F759850438920438780438E1053C4DFAD
:100763007B807A25F9F87F407E427D0FFC1201FEE3
:0C077300EF04F404F58DD28ED299D2ACC4
:01077F002257
:10082000EDD394145007900000EDF0800690000086
:100830007414F0900000E0FF7E0078167C007D01CB
:0F084000120156900016E0F599E490002BF0227B
:100BA600900001E0900047F0E4900001F0900047CB
:020BB600E0FF5E
:010BB800221A
:070CD8009000017401F022FD
:1009710075080075090AE50AC394145016740B250D
:100981000AF8A607E50AB40A08E50BB46603120CD7
:04099100D8050A2259
:040CF700E4F50A22F4
:100B9000E5094508600AE509150970021508800392
:060BA0007F01227F00220C
:030023000208A729
:1008A700C0E0C083C082C0D075D000C000C0073090
:1008B7009807C298AF99120971309902C299D00767
:0B08C700D000D0D0D082D083D0E0322F
:10003E0053B3FB43B40453B3FD43B40253B1FE4375
:10004E00B20153B1FD43B202C292C291C280C281CB
:10005E0053DF3F538EBF43DF07E4F5D175D9B0D2DE
:10006E00DED2DF43DE0143DE0243DE0843DE102232
:0F0C100043DE0143DE0243DE0843DE10D2DF2263
:100AB100C2DF53DEFE53DEFD53DEFB53DEF753DEB2
:0D0AC100EF53DEDFC292C291C280C28122DB
:10034200EF14601814601D146022146027146052A8
:100352002405707BE4F5D28DDAD2DE22E4F5D38D6A
:10036200DBD2DE22E4F5D48DDCD2DE22E4F5D58DBB
:10037200DDD2DE22A2AF9200C2AF75C7AA75C75501
:10038200439101A20092AFE4F5C48DCCA2AF9200DA
:10039200C2AF75C7AA75C7555391FEA20092AFD2DC
:1003A200DE22A2AF9200C2AF75C7AA75C7554391AC
:1003B20001A20092AFE4F5C58DCDA2AF9200C2AF0B
:1003C20075C7AA75C7555391FEA20092AFD2DE221D
:0F0C1F00EF700443DE0122EFB4010343DE022233
:100BB900EF700653DEFED29222EFB4010553DEFD3B
:030BC900D29122A4
:0A05C00042004D000042004F03E826
:090C7C0053B37F43B480C29722F8
:030D0100D2972264
:030D0400C2972271
:090C8500309703C29722D2972296
:100A360090004DE07002A3E0601090004EE024FFAD
:100A4600F090004DE034FFF080037F01227F00220A
:0B0C5F0090004D740BF0A374B8F0225D
:1009230090004FE07002A3E0600F900050E024FFBE
:10093300F090004FE034FFF02290004F7403F0A3D7
:0709430074E8F0120C85229C
:0E0C2E00120A36EF600412092322120D012271
:100AEA0043B11053B2EF53E8F043E80543B1105352
:0C0AFA00B2EFE4F5F643F62043E10122E0
:10094A00C2EFD2EE30EFFDAFC3EF75F010A4ADC227
:10095A007C002DFEEC35F0900047F0A3CEF090001D
:06096A0047E0FEA3E0FFE0
:010970002264
:1002C200020621E493A3F8E493A34003F68001F22B
:1002D20008DFF48029E493A3F85407240CC8C3333D
:1002E200C4540F4420C8834004F456800146F6DF0C
:1002F200E4800B0102040810204080900574E47E23
:10030200019360BCA3FF543F30E509541FFEE49300
:10031200A360010ECF54C025E060A840B8E493A3C7
:10032200FAE493A3F8E493A3C8C582C8CAC583CAF2
:10033200F0A3C8C582C8CAC583CADFE9DEE780BEAA
:0105CA000030
:10008600E709F608DFFA8046E709F208DFFA803E5C
:1000960088828C83E709F0A3DFFA8032E309F60849
:1000A600DFFA8078E309F208DFFA807088828C83B1
:1000B600E309F0A3DFFA806489828A83E0A3F60865
:1000C600DFFA805889828A83E0A3F208DFFA804C3F
:1000D60080D280FA80C680D4806980F28033801016
:1000E60080A680EA809A80A880DA80E280CA80337F
:1000F60089828A83ECFAE493A3C8C582C8CCC583F7
:10010600CCF0A3C8C582C8CCC583CCDFE9DEE780C6
:100116000D89828A83E493A3F608DFF9ECFAA9F045
:10012600EDFB2289828A83ECFAE0A3C8C582C8CC9B
:10013600C583CCF0A3C8C582C8CCC583CCDFEADEB4
:10014600E880DB89828A83E493A3F208DFF980CC16
:1001560088F0EF60010E4E60C388F0ED2402B4040F
:100166000050B9F582EB2402B4040050AF232345B6
:0601760082239000D67305
:10017C00BB010689828A83E0225002E722BBFE0281
:09018C00E32289828A83E49322B4
:10019500BB010CE58229F582E5833AF583E022501F
:1001A50006E92582F8E622BBFE06E92582F8E22269
:0D01B500E58229F582E5833AF583E4932283
:1001C20075F008758200EF2FFFEE33FECD33CDCCF4
:1001D20033CCC58233C5829BED9AEC99E582984077
:1001E2000CF582EE9BFEED9AFDEC99FC0FD5F0D654
:1001F200E4CEFBE4CDFAE4CCF9A88222B800C1B97E
:100202000059BA002DEC8BF084CFCECDFCE5F0CBBB
:10021200F97818EF2FFFEE33FEED33FDEC33FCEBF4
:1002220033FB10D703994004EB99FB0FD8E5E4F9AF
:10023200FA227818EF2FFFEE33FEED33FDEC33FC9C
:10024200C933C910D7059BE99A4007EC9BFCE99A90
:10025200F90FD8E0E4C9FAE4CCFB2275F010EF2FD5
:10026200FFEE33FEED33FDCC33CCC833C810D707D5
:100272009BEC9AE899400AED9BFDEC9AFCE899F810
:0E0282000FD5F0DAE4CDFBE4CCFAE4C8F922A3
:060290008A838982E473F9
:00000001FF
