:100BB60048656C6C6F205769464920436172200D69
:020BC6000A0023
:10065B00410040004100420041003D0042003B0090
:01066B00008E
:100B09007F14EFD39400400E7E01EED3940040038E
:060B19001E80F71F80ECB6
:010B1F0022B3
:10034200E4900043F0A3F0A3F01200391209037BFA
:10035200FF7A0B79B6120B64120CCDEF60FA120C15
:10036200C7D3900045E09414900044E094004020EC
:10037200E4F0A3F0120951900046EEF0A3EFF0D39F
:10038200E094C8900046E094004013120AB8800E30
:10039200900045E004F07006900044E004F0120B77
:1003A20090EF60097B007A00790B1204E11209DDFB
:1003B200EF600F120006E4FF120B20E4FF120B4E57
:1003C20080091209BDEF6003120006120C09808831
:0103D2002208
:0100390022A4
:01003A0022A3
:1004E1008B308A318932120C3C120C47AB30AA3165
:1004F100A932900002120195B4800A900001120104
:10050100956480601AAB30AA31A9329000021201C1
:1005110095FF900001120195FD120605120C31ABF9
:1005210030AA31A932900003120195601A9000039C
:10053100120195FF1209FDAB30AA31A932900004D6
:08054100120195FF120A1D22B0
:0A066C0042004C000042004A00006A
:100883008F37E53760042432F537ED600FE4FD7FE1
:10089300011203D3AD377F041203D322AD377F0197
:0B08A3001203D3E4FD7F041203D322F4
:1008D9008F37E53760042432F537ED600EAD377F89
:1008E900031203D3E4FDFF1203D322E4FD7F0312B5
:0A08F90003D3AD37E4FF1203D3224E
:100AB800E4FD7F011203D3E4FD7F041203D3E4FDB8
:0C0AC8007F031203D3E4FDFF1203D322CE
:100006007DFF7F011203D37DFF7F041203D37DFFA3
:0D0016007F031203D37DFFE4FF1203D3220A
:100B2000EF24FE600804700AD285C29522C285D2E5
:070B30009522C285C2952247
:100B4E00EF14600814700AD290C28322C290D2832E
:060B5E0022C290C28322B6
:100A7C008E358F36C3E535648094804006E4FD12D4
:0E0A8C00088322E536F404FF7D011208832260
:100A9A008E358F36C3E535648094804006E4FD12B6
:0E0AAA0008D922E536F404FF7D011208D92296
:02060500AC0740
:10060700E4FFFEF533F534900048F0EC2480FFE476
:1006170034FFFEEC2480F534E434FFF533ED6480D9
:100627006027EDD39480400DE4FEFFED2480F53480
:10063700E434FFF533EDC39480500EE4F533F5341D
:10064700C374809DFFE49400FE120A7CAF34AE337E
:03065700120A9AEA
:01065A00227D
:1009BD0090004CE07002A3E0601090004DE024FF29
:1009CD00F090004CE034FFF080037F01227F002285
:0B0C310090004C7401F0A374F4F0225A
:1009DD0090004AE07002A3E0601090004BE024FF0D
:1009ED00F090004AE034FFF080037F01227F002267
:0B0C3C0090004A7403F0A374E8F0225B
:1009FD00AE07EED3944050067F01120B2022EEC3BA
:100A0D0094D040067F02120B2022E4FF120B20220D
:100A1D00AE07EED3944050067F01120B4E22EEC36B
:100A2D0094C040067F02120B4E22E4FF120B4E22A1
:030CE300D2AF226B
:030CE600C2AF2278
:1007B90053B1BF53B2BF53B17F53B27F7598504302
:1007C9008920438780438E1053C4DFAB07AA06A94B
:1007D90005A8047F407E427D0F7C001201FEEF04D4
:0B07E900F404F58DD28ED299D2AC2220
:070C76003098FDAF99C29810
:010C7D002254
:080C7E00C2998F993099FD2203
:100B3700AF051DEF601012017CFF120C7E740129B6
:070B4700F9E43AFA80EA220A
:100B640012017C601012017CFF120C7E740129F9C1
:060B7400E43AFA80EB22D6
:0300000002029663
:1002960075C7AA75C75575FD5A75C7AA75C7557529
:1002A600FDA5787FE4F6D8FD9000007FFF7E03E48D
:0C02B600F0A3DFFCDEFA7581400202FDBF
:040676004100390006
:1009030012099C120C64120AD47BFF7A0C79171219
:1009130000267FC07E127D007C001207B912003EC4
:07092300120CE3120CDB22B1
:01008200225B
:04007E00120827221B
:10085600900038E06002E4F090002EE0B40117A3A7
:10086600E0701390003A04F090002DE004F070065A
:0D08760090002CE004F090002EE0A3F02292
:040CD300120BEB22F3
:100AF000C390002DE094E890002CE094034007E4BC
:090B0000F0A3F07F01227F002226
:070C860090003AE0FFE4F0EA
:010C8D002244
:040CD700120C5B227E
:100A5D00AE07EEC3940440037FFF22EE25E0243061
:0F0A6D00F582E43400F583ECF0A3EDF0AF062240
:100BC800EF25E02430F582E43400F583E0FEA3E06D
:020BD800FF22FA
:1007F400EF14601314601914601F240370227F0720
:100804001205A78F1F8019E4FF120C248F1F80107C
:100814007F051205498F1F80077F071205498F1F27
:02082400AF1F04
:0108260022AF
:080C8E00AD07E4FF120C522235
:10073F008B3E8A3F8940EF14601524FA601B1460CA
:10074F002224087027AB3EAA3FA940120CB222AB5D
:10075F003EAA3FA940120CB922AB3EAA3FA94012B4
:0D076F000CA422AB3EAA3FA940120CAB2205
:070C96009000397401F02207
:060CC700E4900039F02268
:060CCD00900039E0FF2257
:0D0C1700120C96120B7AEF6003120CDF2214
:10067A000327000000032A000000032D00000003E6
:09068A002100000003240000001F
:10099C0053B1DF43B220C28553B3DF43B420C295B9
:1009AC0053B3FE43B401C29053B1F743B208C283B0
:0109BC002218
:10054900EFB408005055900556F828287302056E37
:1005590002057502057C02058302058A02059102DE
:10056900059802059FA280E433FE802FA281E4331F
:10057900FE8028A282E433FE8021A283E433FE8038
:100589001AA284E433FE8013A285E433FE800CA210
:0D05990086E433FE8005A287E433FEAF0642
:0105A6002232
:1005A700EFB4080050559005B4F82828730205CC1D
:1005B7000205D30205DA0205E10205E80205EF02AA
:1005C70005F60205FDA290E433FE802FA291E433E5
:1005D700FE8028A292E433FE8021A293E433FE80BA
:1005E7001AA294E433FE8013A295E433FE800CA292
:0D05F70096E433FE8005A297E433FEAF06C4
:0106040022D3
:0C0C2400E4FEEF7005A2B0E433FEAF0662
:010C300022A1
:090C5200EF7005ED24FF92A022D1
:070C9D008B278A2889292218
:070CA4008B2A8A2B892C2208
:070CAB008B2D8A2E892F22F8
:070CB2008B218A2289232215
:070CB9008B248A2589262205
:03003B0002046359
:10046300C0E0C0F0C083C082C0D075D000C000C05F
:0D04730001C002C003C004C005C006C007E0
:1004800085EC38E53830E411E52845294527603307
:10049000AA28A929120290802AE53830E511E52B17
:1004A000452C452A601DAA2BA92C1202908014E528
:1004B0003830E60FE52E452F452D6007AA2EA92FCF
:0604C00012029075EC0031
:1004C600D007D006D005D004D003D002D001D0008A
:0B04D600D0D0D082D083D0F0D0E03234
:030003000206F8FA
:1006F800C0E0C0F0C083C082C0D075D000C000C0C8
:1007080001C002C003C004C005C006C007E52245F9
:100718002345216007AA22A923120290D007D006F8
:10072800D005D004D003D002D001D000D0D0D082E0
:07073800D083D0F0D0E032C5
:05069300033900000026
:100BDA005389F0438901538EF7E4F58CF58AD28C58
:010BEA0022E8
:0F0BEB00C28C858C3C858A3DD28CAE3CAF3D22BE
:100026008B398A3A893B75C40275C6F875C5304363
:030036009C022207
:040CDB0043C40822E4
:080C5B00AFC6EFFEADC5EDFFD1
:010C6300226E
:030083000206AEC4
:1006AE00C0E0C0F0C083C082C0D075D000C000C012
:1006BE0001C002C003C004C005C006C00753C4EF8A
:1006CE00E53A453B45396007AA3AA93B120290D05C
:1006DE0007D006D005D004D003D002D001D000D070
:0A06EE00D0D082D083D0F0D0E032EB
:0B06980041000100010A000208000000
:10077C00E490002AF053B1BF53B2BF53B17F53B2D0
:10078C007F759850438920438780438E1053C4DF74
:10079C007B807A25F9F87F407E427D0FFC1201FEAA
:0C07AC00EF04F404F58DD28ED299D2AC8B
:0107B800221E
:10082700EDD394145007900000EDF080069000007F
:100837007414F0900000E0FF7E0078167C007D01C4
:0F084700120156900016E0F599E490002BF02274
:100B9000900001E0900048F0E4900001F0900048DF
:020BA000E0FF74
:010BA2002230
:070CC0009000017401F02215
:1009780075080075090AE50AC394145016740B2506
:100988000AF8A607E50AB40A08E50BB46603120CD0
:04099800C0050A226A
:040CDF00E4F50A220C
:100B7A00E5094508600AE5091509700215088003A8
:060B8A007F01227F002222
:030023000208AE22
:1008AE00C0E0C083C082C0D075D000C000C0073089
:1008BE009807C298AF99120978309902C299D00759
:0B08CE00D000D0D0D082D083D0E03228
:10003E0053B3FB43B40453B3FD43B40253B1FE4375
:10004E00B20153B1FD43B202C292C291C280C281CB
:10005E0053DF3F538EBF43DF07E4F5D175D9B0D2DE
:10006E00DED2DF43DE0143DE0243DE0843DE102232
:1003D300EF14601814601D14602214602714605217
:1003E3002405707BE4F5D28DDAD2DE22E4F5D38DD9
:1003F300DBD2DE22E4F5D48DDCD2DE22E4F5D58D2A
:10040300DDD2DE22A2AF9200C2AF75C7AA75C7556F
:10041300439101A20092AFE4F5C48DCCA2AF920048
:10042300C2AF75C7AA75C7555391FEA20092AFD24A
:10043300DE22A2AF9200C2AF75C7AA75C75543911A
:1004430001A20092AFE4F5C58DCDA2AF9200C2AF79
:1004530075C7AA75C7555391FEA20092AFD2DE228B
:0F0BFA00EF700443DE0122EFB4010343DE022259
:100BA300EF700653DEFED29222EFB4010553DEFD51
:030BB300D29122BA
:0A06A30042004E000042005003E840
:090C640053B37F43B480C2972210
:030CE900D297227D
:030CEC00C297228A
:090C6D00309703C29722D29722AE
:100A3D0090004EE07002A3E0601090004FE024FFA4
:100A4D00F090004EE034FFF080037F01227F002202
:0B0C470090004E740BF0A374B8F02274
:10092A00900050E07002A3E0600F900051E024FFB5
:10093A00F0900050E034FFF0229000507403F0A3CE
:07094A0074E8F0120C6D22AD
:0E0C0900120A3DEF600412092A22120CE922A1
:100AD40043B11053B2EF53E8F043E80543B1105368
:0C0AE400B2EFE4F5F643F62043E10122F6
:10095100C2EFD2EE30EFFDAFC3EF75F010A4ADC220
:100961007C002DFEEC35F0900048F0A3CEF0900015
:0609710048E0FEA3E0FFD8
:01097700225D
:1002C200020342E493A3F8E493A34003F68001F20D
:1002D20008DFF48029E493A3F85407240CC8C3333D
:1002E200C4540F4420C8834004F456800146F6DF0C
:1002F200E4800B010204081020408090065BE47E3B
:10030200019360BCA3FF543F30E509541FFEE49300
:10031200A360010ECF54C025E060A840B8E493A3C7
:10032200FAE493A3F8E493A3C8C582C8CAC583CAF2
:10033200F0A3C8C582C8CAC583CADFE9DEE780BEAA
:0106AD00004C
:10008600E709F608DFFA8046E709F208DFFA803E5C
:1000960088828C83E709F0A3DFFA8032E309F60849
:1000A600DFFA8078E309F208DFFA807088828C83B1
:1000B600E309F0A3DFFA806489828A83E0A3F60865
:1000C600DFFA805889828A83E0A3F208DFFA804C3F
:1000D60080D280FA80C680D4806980F28033801016
:1000E60080A680EA809A80A880DA80E280CA80337F
:1000F60089828A83ECFAE493A3C8C582C8CCC583F7
:10010600CCF0A3C8C582C8CCC583CCDFE9DEE780C6
:100116000D89828A83E493A3F608DFF9ECFAA9F045
:10012600EDFB2289828A83ECFAE0A3C8C582C8CC9B
:10013600C583CCF0A3C8C582C8CCC583CCDFEADEB4
:10014600E880DB89828A83E493A3F208DFF980CC16
:1001560088F0EF60010E4E60C388F0ED2402B4040F
:100166000050B9F582EB2402B4040050AF232345B6
:0601760082239000D67305
:10017C00BB010689828A83E0225002E722BBFE0281
:09018C00E32289828A83E49322B4
:10019500BB010CE58229F582E5833AF583E022501F
:1001A50006E92582F8E622BBFE06E92582F8E22269
:0D01B500E58229F582E5833AF583E4932283
:1001C20075F008758200EF2FFFEE33FECD33CDCCF4
:1001D20033CCC58233C5829BED9AEC99E582984077
:1001E2000CF582EE9BFEED9AFDEC99FC0FD5F0D654
:1001F200E4CEFBE4CDFAE4CCF9A88222B800C1B97E
:100202000059BA002DEC8BF084CFCECDFCE5F0CBBB
:10021200F97818EF2FFFEE33FEED33FDEC33FCEBF4
:1002220033FB10D703994004EB99FB0FD8E5E4F9AF
:10023200FA227818EF2FFFEE33FEED33FDEC33FC9C
:10024200C933C910D7059BE99A4007EC9BFCE99A90
:10025200F90FD8E0E4C9FAE4CCFB2275F010EF2FD5
:10026200FFEE33FEED33FDCC33CCC833C810D707D5
:100272009BEC9AE899400AED9BFDEC9AFCE899F810
:0E0282000FD5F0DAE4CDFBE4CCFAE4C8F922A3
:060290008A838982E473F9
:00000001FF
