:1006C4004100590041005B004100560042005400C3
:0106D4000025
:10111E007F14EFD39400400E7E01EED39400400373
:06112E001E80F71F80EC9B
:011134002298
:1007CB00E490005CF0A3F0A3F0A3F0120E48121318
:1007DB004FEF60FA12134912002612042A1211A2CB
:1007EB00EF60097B007A00790B120840120F8DEF36
:1007FB00601C120006E4FDFF120D97E4FF1210BC03
:10080B00E4FD7F01120D97E4FF1210EE800F120F23
:10081B006DEF6009120006E4FDFF120D97120FAD8C
:10082B00EF600C121337EF600612133112120E1217
:04083B00124C809A41
:01083F002296
:01003A0022A3
:011385002245
:100840008B308A31893212128B1212B7AB30AA3137
:10085000A932900002120195B4800A9000011201A1
:100860009564806021AB30AA31A932900002120158
:1008700095FF900001120195FD1203337D01E4FF05
:10088000120D97121280AB30AA31A93290000312D8
:100890000195601A900003120195FF120D37AB30DD
:0F08A000AA31A932900004120195FF12106722AD
:1006D500420051000042004F000041004B00410024
:0706E5004C0042004D000033
:100A83008F398D3AE539700EFD7F01120634E4FD8E
:100A93007F0412063422743C2539F539E53A600F98
:100AA300E4FD7F01120634AD397F0412063422AD12
:0E0AB300397F01120634E4FD7F04120634225E
:100B3B008F398D3AE539700DFD7F03120634E4FDD4
:100B4B00FF12063422743C2539F539E53A600EADB7
:100B5B00397F03120634E4FDFF12063422E4FD7FD5
:0C0B6B0003120634AD39E4FF12063422F8
:10108500E4FD7F01120634E4FD7F04120634E4FD1D
:0C1095007F03120634E4FDFF1206342233
:100006007DFF7F011206347DFF7F041206347DFFDB
:0D0016007F031206347DFFE4FF1206342242
:100D9700EF146016047025ED6008900053E04401DD
:100DA700F022900053E054FEF022ED6008900053CB
:0D0DB700E04402F022900053E054FDF022D1
:06132B00900053E0FF22D8
:0C12740012132BEF60037F00227F012289
:1010BC008F45EF24FE600804700AD294C29322C2BA
:0910CC0094D29322C294C2932233
:03137300AF452261
:1010EE008F44EF14600814700AD290C28322C2900B
:0810FE00D28322C290C28322BA
:03137600AF44225F
:10102B008E378F38C3E537648094804006E4FD1219
:0E103B000A8322E538F404FF7D01120A8322A5
:101049008E378F38C3E537648094804006E4FD12FB
:0E1059000B3B22E538F404FF7D01120B3B2215
:04033300AB05AA0765
:10033700E4F533F534F535F536900060F0EA2480BE
:10034700F534E434FFF533EA2480F536E434FFF579
:1003570035EB6480700302041BEA64807050EBD3B2
:100367009480401EEB2480F536E434FFF535C3E472
:100377009536FFE49535FE7C007D021202298E3307
:100387008F34EBC39480400302041BEBFFC37480DC
:100397009FF534E49400F533C3E49534FFE49533D3
:1003A700FE7C007D021202298E358F368066EAD3E5
:1003B7009480402FEBD39480400FE4F533F534EB72
:1003C7002480F536E434FFF535EBC394805045E4DB
:1003D700F535F536EBFFC374809FF534E49400F5EB
:1003E700338031EAC39480502BEB94804011E4F5BD
:1003F70033F534EBFF74809FF536E49400F535EB65
:10040700C39480500FE4F535F536EB2480F534E4DA
:1004170034FFF533AF34AE3312102BAF36AE35128F
:0204270010497A
:0104290022B0
:100F6D00900051E07002A3E06010900052E024FF69
:100F7D00F0900051E034FFF080037F01227F0022CA
:0B1280009000517402F0A374BCF02237
:100F8D0090004FE07002A3E06010900050E024FF4D
:100F9D00F090004FE034FFF080037F01227F0022AC
:0B128B0090004F7403F0A374E8F02201
:100D3700AE07EED39440500B7F011210BC7D011219
:100D47000D9722EEC394D0400C7F021210BC7D0198
:100D57001F120D9722E4FF1210BCE4FD0F120D972E
:010D67002269
:0712EC0090004C7401F02298
:06133100E490004CF022E4
:0613370090004CE0FF22D3
:10120E0090004BE06003E4F02290004B7401F0225A
:101106001212EC12129690004BE060067F0112104C
:08111600EE227F021210EE220E
:101067008F33E533D39440500412110622E533C37E
:0E10770094C0400412110622E4FF1210EE2273
:100FAD0090004DE07002A3E0601090004EE024FF31
:100FBD00F090004DE034FFF080037F01227F00228E
:0B12960090004D7401F0A374F4F022EE
:1006EC0041004400011F014100456D4100485E413D
:1006FC00004964410043AF410042FF42003C00000E
:05070C0042003E000068
:0712F3009000447401F02299
:06133D00E4900044F022E0
:06134300900044E0FF22CF
:031379008F1F22A1
:03137C00AF1F227E
:0A12A10012003E900060EFF0E0FF45
:0112AB002220
:10121E007E007C017D631201C21C7D5F1201D4220F
:0D125A008F307F011211C8AF301211C82271
:100C9A00D3900041E094B4900040E0940040089062
:100CAA000060740AF08019900040E0FEA3E0FF7C27
:100CBA00007D0A1201C27DB41201D4900060EFF0E7
:050CCA00900060E0FF56
:010CCF002202
:100EBD003095119000457479F0900048745AF0A364
:100ECD007460F0229000457493F09000487467F0C0
:050EDD00A37472F02275
:100DF100EF75F005A4900060F0E0FFC374969F903A
:100E01000045F0900060E0C374879F900049F09026
:0B0E11000060E0C3747A9F900048F07E
:010E1C0022B3
:10042A00C390003DE094C490003CE094095003025C
:10043A0004CDE4F0A3F01212F3120C2A900046E461
:10044A00F0A3EFF01212A190004AEFF012133D90C0
:10045A00004AE0C394C5501AE075F064A4FFAEF0F8
:10046A00900046E0FCA3E0FD1201D4900042EFF0B8
:10047A00800690004274FFF0120C9A120DF190005F
:10048A0048E0FF900042E0C39F5006A374A1F080A9
:10049A0029900049E0FF900042E0C39F500BA3E07F
:1004AA0064A1601674A2F08011900045E0FF9000EC
:1004BA0042E0D39F4004A374AFF0900043E0FF12E0
:1004CA00125A2290003DE004F0700690003CE004CD
:0104DA00F031
:0104DB0022FE
:1004DC00C390003FE094C490003EE09409500302A6
:1004EC000579E4F0A3F01212F3120C2A900046E402
:1004FC00F0A3EFF01212A190004AEFF012133D900E
:10050C00004AE0C394C5501AE075F064A4FFAEF045
:10051C00900046E0FCA3E0FD1201D4900042EFF005
:10052C00800690004274FFF0900048E0FF9000427B
:10053C00E0C39F5006A374A1F08029900049E0FF0E
:10054C00900042E0C39F500BA3E064A1601674A21C
:10055C00F08011900045E0FF900042E0D39F4004F2
:10056C00A374AFF0900043E0FF12125A2290003FA8
:0B057C00E004F0700690003EE004F088
:010587002251
:100F06007F0CEFD3940040197E82EED39400400EFE
:100F16007D13EDD3940040031D80F71E80EC1F80E7
:020F2600E100E8
:010F280022A6
:03137F00D2AF22C8
:03138200C2AF22D5
:100BEF0053B1BF53B2BF53B17F53B27F75985043C8
:100BFF008920438780438E1053C4DFAB07AA06A911
:100C0F0005A8047F407E427D0F7C0012029BEF04FB
:0B0C1F00F404F58DD28ED299D2AC22E5
:0712D4003098FDAF99C298AC
:0112DB0022F0
:1011C80090006074C3F0A37450F0C2998F9930995D
:0111D800FD19
:0111D90022F3
:10113500AF051DEF601012017CFF1211C874012963
:07114500F9E43AFA80EA2206
:1011630012017C601012017CFF1211C8740129F96D
:06117300E43AFA80EB22D1
:10114C007F01EFD39400400E7E0AEED3940040034F
:06115C001E80F71F80EC6D
:01116200226A
:100CD0008F46D3EF9400EE940040287D11EDD3941D
:100CE0000040197C86ECD39400400E7B02EBD39439
:100CF0000040031B80F71C80EC1D80E1EF1F70019A
:030D00001E80CF83
:010D030022CD
:100F29007F11EFD3940040197E86EED39400400ED2
:100F39007D02EDD3940040031D80F71E80EC1F80D5
:010F4900E1C6
:010F4A002284
:100F4B007FC1EFD3940040197E76EED39400400E10
:100F5B007D02EDD3940040031D80F71E80EC1F80B3
:010F6B00E1A4
:010F6C002262
:030000000205886E
:1005880075C7AA75C75575FD5A75C7AA75C7557534
:10059800FDA5787FE4F6D8FD9000007FFF7E03E498
:0C05A800F0A3DFFCDEFA7581470205EFCE
:0807110041003A0041002C00F8
:100E4800120C63120E6F1211FD7BFF7A0979FC12E6
:100E5800118F7FC07E127D007C00120BEF120A40BA
:070E680012137F12136B222D
:011386002244
:04135F00120D6822E1
:100DC400900039E06002E4F090002FE0B40117A332
:100DD400E0701390003B04F090002EE004F07006E5
:0D0DE40090002DE004F090002FE0A3F0221D
:0413630012122E2212
:1010D500C390002EE094E890002DE094034007E4CF
:0910E500F0A3F07F01227F00223C
:0712DC0090003BE0FFE4F08D
:0112E30022E8
:041367001212CB2271
:100FED00AE07EEC3940440037FFF22EE25E02431CB
:0F0FFD00F582E43400F583ECF0A3EDF0AF0622AB
:1011DA00EF25E02431F582E43400F583E0FEA3E054
:0211EA00FF22E2
:100D0400EF14601314601914601F240370227F070A
:100D140012090D8F478019E4FF1212678F47801064
:100D24007F051208AF8F4780077F071208AF8F47F0
:020D3400AF47C7
:010D3600229A
:0812E400AD07E4FF1212C22263
:100AC1008B418A428943EF14601524FA601B14603C
:100AD1002224087027AB41AA42A94312131622AB64
:100AE10041AA42A94312131D22AB41AA42A94312B2
:0D0AF100130822AB41AA42A94312130F22A1
:0712FA0090003A7401F0229C
:06134900E490003AF022DE
:06134F0090003AE0FF22CD
:1009FC0090002CE0C3940A5005E004F08011E490C0
:100A0C00002CF01212FA121179EF600312136F120C
:100A1C001343EF701E120B77900040EEF0A3EFF033
:100A2C00D3E094B4900040E09400400412100C22E7
:030A3C001210A1F4
:010A3F002294
:100719000327000000032A000000032D0000000346
:090729002100000003240000007F
:100E6F0053B3EF43B410C29453B3F743B408C293D0
:100E7F0053B3FE43B401C29053B1F743B208C283D8
:070E8F0053B3DF53B4DF226F
:1008AF00EFB4080050559008BCF82828730208D4FC
:1008BF000208DB0208E20208E90208F00208F70268
:1008CF0008FE020905A280E433FE802FA281E433E3
:1008DF00FE8028A282E433FE8021A283E433FE80CF
:1008EF001AA284E433FE8013A285E433FE800CA2A7
:0D08FF0086E433FE8005A287E433FEAF06D9
:01090C0022C8
:10090D00EFB40800505590091AF8282873020932DF
:10091D0002093902094002094702094E020955022E
:10092D00095C020963A290E433FE802FA291E433A7
:10093D00FE8028A292E433FE8021A293E433FE8050
:10094D001AA294E433FE8013A295E433FE800CA228
:0D095D0096E433FE8005A297E433FEAF065A
:01096A00226A
:0C126700E4FEEF7005A2B0E433FEAF0619
:011273002258
:0912C200EF7005ED24FF92A0225B
:071301008B278A28892922AD
:071308008B2A8A2B892C229D
:07130F008B2D8A2E892F228D
:071316008B218A22892322AA
:07131D008B248A258926229A
:03003B0002074D6C
:10074D00C0E0C0F0C083C082C0D075D000C000C072
:0D075D0001C002C003C004C005C006C007F3
:10076A0085EC3BE53B30E411E52845294527603314
:10077A00AA28A92912032D802AE53B30E511E52B89
:10078A00452C452A601DAA2BA92C12032D8014E59D
:10079A003B30E60FE52E452F452D6007AA2EA92FDF
:0607AA0012032D75EC00A6
:1007B000D007D006D005D004D003D002D001D0009D
:0B07C000D0D0D082D083D0F0D0E03247
:030003000209B53A
:1009B500C0E0C0F0C083C082C0D075D000C000C008
:1009C50001C002C003C004C005C006C007E522453A
:1009D5002345216007AA22A92312032DD007D0069B
:1009E500D005D004D003D002D001D000D0D0D08221
:0709F500D083D0F0D0E03206
:05073200033C00000083
:1011EC005389F0438901538EF7E4F58CF58AD28C40
:0111FC0022D0
:0F122E00C28C858C3F858A40D28CAE3FAF402268
:10118F008B3C8A3D893E75C40275C6FF75C53843D1
:03119F009C02228D
:04136B0043C408224D
:0812CB00AFC6EFFEADC5EDFF5B
:0112D30022F8
:0300830002096B04
:10096B00C0E0C0F0C083C082C0D075D000C000C052
:10097B0001C002C003C004C005C006C00753C4EFCA
:10098B00E53D453E453C6007AA3DA93E12032DD0EF
:10099B0007D006D005D004D003D002D001D000D0B0
:0A09AB00D0D082D083D0F0D0E0322B
:0B07370041000100010A000208000060
:100AFE00E490002AF053B1BF53B2BF53B17F53B24B
:100B0E007F759850438920438780438E1053C4DFEE
:100B1E007B807A25F9F87F407E427D0FFC12029B86
:0C0B2E00EF04F404F58DD28ED299D2AC05
:010B3A002298
:100D6800EDD394145007900000EDF0800690000039
:100D78007414F0900000E0FF7E0078167C007D017E
:0F0D8800120156900016E0F599E490002BF0222E
:1011A200900001E0900060F0E4900001F090006097
:0211B200E0FF5C
:0111B4002218
:071324009000017401F022AA
:100EE20075080075090AE50AC394145016740B2597
:100EF2000AF8A607E50AB40A08E50BB4660312135A
:040F020024050A2296
:04136F00E4F50A2275
:10117900E5094508600AE5091509700215088003A3
:061189007F01227F00221D
:03002300020E1DAD
:100E1D00C0E0C083C082C0D075D000C000C0073014
:100E2D009807C298AF99120EE2309902C299D00775
:0B0E3D00D000D0D0D082D083D0E032B3
:100C630075C7AA75C75575AA07A2AF9200C2AF751B
:100C7300C7AA75C75543AA40A20092AFE5AA44BFCD
:100C8300F460F9A2AF9200C2AF75C7AA75C7554306
:070C9300AA80A20092AF222B
:10002600A2AF9200C2AF75C7AA75C75543AA40A230
:040036000092AF2263
:100A400053B3FB43B40453B3FD43B40253B1FE4369
:100A5000B20153B1FD43B202C292C291C280C281BF
:100A600053DF3F538EBF43DF0253DFFAE4F5D17506
:100A7000D9BAD2DED2DF43DE0143DE0243DE0843D1
:030A8000DE102263
:1010A10043DE0143DE0243DE0843DE10D2DF1213CA
:0B10B100731210BC1213761210EE2216
:10100C00C2DF53DEFE53DEFD53DEF753DEEFC2923A
:0F101C00C291C280C281C294C293C290C2832289
:10063400EF14601814601D146022146027146052B3
:100644002405707BE4F5D28DDAD2DE22E4F5D38D75
:10065400DBD2DE22E4F5D48DDCD2DE22E4F5D58DC6
:10066400DDD2DE22A2AF9200C2AF75C7AA75C7550C
:10067400439101A20092AFE4F5C48DCCA2AF9200E5
:10068400C2AF75C7AA75C7555391FEA20092AFD2E7
:10069400DE22A2AF9200C2AF75C7AA75C7554391B7
:1006A40001A20092AFE4F5C58DCDA2AF9200C2AF16
:1006B40075C7AA75C7555391FEA20092AFD2DE2228
:0F123D00EF700443DE0122EFB4010343DE02220F
:1011B500EF700653DEFED29222EFB4010553DEFD39
:0311C500D29122A2
:0A074200420063000042006503E876
:1011FD0053B37F43B480D29753ACFE43AD01D2B00D
:01120D0022BE
:05135500C297C2B022A6
:05135A00D297D2B02281
:0B12AC003097041213552212135A222F
:100FCD00900063E07002A3E06010900064E024FFE5
:100FDD00F0900063E034FFF080037F01227F002258
:0B12B700900063740BF0A374B8F022E9
:100E9600900065E07002A3E0600F900066E024FF1A
:100EA600F0900065E034FFF0229000657403F0A333
:070EB60074E8F01212AC22F7
:0E124C00120FCDEF6004120E962212135522DF
:011387002243
:100B770053E8F043E80543B11053B2EFE4F5F64309
:100B8700F62043E101C2EFD2EE30EFFDAFC3EF75C0
:100B9700F010A4ADC27C002DFEEC35F0900060F0A3
:0B0BA700A3CEF0900060E0FEA3E0FF92
:010BB2002220
:100BB30053E8F043E80443B12053B2DFE4F5F643CE
:100BC300F61043E101C2EFD2EE30EFFDAFC3EF7594
:100BD300F010A4ADC27C002DFEEC35F0900067F060
:0B0BE300A3CEF0900067E0FEA3E0FF4F
:010BEE0022E4
:10003E0053E8F043E80443B12053B2DFE4F5F6434E
:10004E00F61043E101C2EFD2EE30EFFDAFC3EF7514
:10005E00F010A4ADC27C002DFEEC35F0900061F0E6
:10006E00A3CEF0900061E0C4F854F0C868A3E0C4D9
:04007E00540F48FFD4
:01008200225B
:100C2A0043E80853E8F843E101C2EFD2EE30EFFDA2
:100C3A00AFC3EF75F010A4ADC27C002DFEEC35F009
:100C4A00900060F0A3CEF0900060E0C4F854F0C8C1
:080C5A0068A3E0C4540F48FF39
:010C6200226F
:1005B4000207CBE493A3F8E493A34003F68001F28B
:1005C40008DFF48029E493A3F85407240CC8C33348
:1005D400C4540F4420C8834004F456800146F6DF17
:1005E400E4800B01020408102040809006C4E47EDD
:1005F400019360BCA3FF543F30E509541FFEE4930C
:10060400A360010ECF54C025E060A840B8E493A3D2
:10061400FAE493A3F8E493A3C8C582C8CAC583CAFD
:10062400F0A3C8C582C8CAC583CADFE9DEE780BEB5
:01074C0000AC
:10008600E709F608DFFA8046E709F208DFFA803E5C
:1000960088828C83E709F0A3DFFA8032E309F60849
:1000A600DFFA8078E309F208DFFA807088828C83B1
:1000B600E309F0A3DFFA806489828A83E0A3F60865
:1000C600DFFA805889828A83E0A3F208DFFA804C3F
:1000D60080D280FA80C680D4806980F28033801016
:1000E60080A680EA809A80A880DA80E280CA80337F
:1000F60089828A83ECFAE493A3C8C582C8CCC583F7
:10010600CCF0A3C8C582C8CCC583CCDFE9DEE780C6
:100116000D89828A83E493A3F608DFF9ECFAA9F045
:10012600EDFB2289828A83ECFAE0A3C8C582C8CC9B
:10013600C583CCF0A3C8C582C8CCC583CCDFEADEB4
:10014600E880DB89828A83E493A3F208DFF980CC16
:1001560088F0EF60010E4E60C388F0ED2402B4040F
:100166000050B9F582EB2402B4040050AF232345B6
:0601760082239000D67305
:10017C00BB010689828A83E0225002E722BBFE0281
:09018C00E32289828A83E49322B4
:10019500BB010CE58229F582E5833AF583E022501F
:1001A50006E92582F8E622BBFE06E92582F8E22269
:0D01B500E58229F582E5833AF583E4932283
:1001C200EF8DF0A4A8F0CF8CF0A428CE8DF0A42E51
:0201D200FE220B
:1001D400BC000BBE0029EF8DF084FFADF022E4CC0F
:1001E400F875F008EF2FFFEE33FEEC33FCEE9DECD8
:1001F400984005FCEE9DFE0FD5F0E9E4CEFD22ED1E
:10020400F8F5F0EE8420D21CFEADF075F008EF2F67
:10021400FFED33FD4007985006D5F0F222C398FD58
:050224000FD5F0EA22F5
:10022900C2D5EC30E709B2D5E4C39DFDE49CFCEEF0
:1002390030E715B2D5E4C39FFFE49EFE1201D4C393
:10024900E49DFDE49CFC80031201D430D507C3E48E
:060259009FFFE49EFE225F
:10025F0075F008758200EF2FFFEE33FECD33CDCC56
:10026F0033CCC58233C5829BED9AEC99E5829840D9
:10027F000CF582EE9BFEED9AFDEC99FC0FD5F0D6B6
:10028F00E4CEFBE4CDFAE4CCF9A88222B800C1B9E0
:10029F000059BA002DEC8BF084CFCECDFCE5F0CB1E
:1002AF00F97818EF2FFFEE33FEED33FDEC33FCEB57
:1002BF0033FB10D703994004EB99FB0FD8E5E4F912
:1002CF00FA227818EF2FFFEE33FEED33FDEC33FCFF
:1002DF00C933C910D7059BE99A4007EC9BFCE99AF3
:1002EF00F90FD8E0E4C9FAE4CCFB2275F010EF2F38
:1002FF00FFEE33FEED33FDCC33CCC833C810D70738
:10030F009BEC9AE899400AED9BFDEC9AFCE899F872
:0E031F000FD5F0DAE4CDFBE4CCFAE4C8F92205
:06032D008A838982E4735B
:00000001FF
