:1007E700E4900048F0A3F0A3F0A3F0120BD212108C
:1007F7001BEF60FA121015120ED1120500120EE54A
:10080700EF60097B007A00790B12042A120CF7EFCC
:10081700600F120DF0E4FF120E44E4FF120E5D802C
:1008270009120003EF6003120DF0120D37EF600C91
:10083700121003EF6006120FFD120F52120F808085
:01084700AD03
:01084800228D
:10076C0042004600004200440000410040004100AD
:07077C0041004200420000B1
:100970008F398D3AE539700EFD7F0112065EE4FD78
:100980007F0412065E22743C2539F539E53A600F82
:10099000E4FD7F0112065EAD397F0412065E22ADD2
:0E09A000397F0112065EE4FD7F0412065E221E
:1009AE008F398D3AE539700DFD7F0312065EE4FD39
:1009BE00FF12065E22743C2539F539E53A600EAD1C
:1009CE00397F0312065EE4FDFF12065E22E4FD7F10
:0C09DE000312065EAD39E4FF12065E2233
:100E0D00E4FD7F0112065EE4FD7F0412065EE4FD43
:0C0E1D007F0312065EE4FDFF12065E2259
:100DF0007DFF7F0112065E7DFF7F0412065E7DFF90
:0D0E00007F0312065E7DFFE4FF12065E22F6
:100E44008F3DEF24FE600804700AD294C29322C23C
:090E540094D29322C294C29322AD
:03103300AF3D22AC
:100E5D008F3CEF14600814700AD290C28322C290A6
:080E6D00D28322C290C283224D
:03103600AF3C22AA
:100D96008E378F38C3E537648094804006E4FD12B1
:0E0DA600097022E538F404FF7D011209702265
:100DB4008E378F38C3E537648094804006E4FD1293
:0E0DC40009AE22E538F404FF7D011209AE22CB
:04033300AB05AA0765
:10033700E4F533F534F535F53690004CF0EA2480D2
:10034700F534E434FFF533EA2480F536E434FFF579
:1003570035EB6480700302041BEA64807050EBD3B2
:100367009480401EEB2480F536E434FFF535C3E472
:100377009536FFE49535FE7C007D021202298E3307
:100387008F34EBC39480400302041BEBFFC37480DC
:100397009FF534E49400F533C3E49534FFE49533D3
:1003A700FE7C007D021202298E358F368066EAD3E5
:1003B7009480402FEBD39480400FE4F533F534EB72
:1003C7002480F536E434FFF535EBC394805045E4DB
:1003D700F535F536EBFFC374809FF534E49400F5EB
:1003E700338031EAC39480502BEB94804011E4F5BD
:1003F70033F534EBFF74809FF536E49400F535EB65
:10040700C39480500FE4F535F536EB2480F534E4DA
:1004170034FFF533AF34AE33120D96AF36AE351227
:020427000DB412
:0104290022B0
:04084900AA07A9054C
:10084D00E4FFFEF533F53490004CF0EA648060145B
:10085D00EA2480FFE434FFFEEA2480F534E434FF1B
:10086D00F5338020E92480FDE434FFFCC3E49DFFD3
:10087D00E49CFEEB2480FDE434FFFCC3E49DF534E1
:0E088D00E49CF533120D96AF34AE33120DB469
:01089B00223A
:10000300900046E07002A3E06010900047E024FFF8
:10001300F0900046E034FFF080037F01227F00224E
:0B0F8E009000467401F0A374F4F02200
:100CF700900044E07002A3E06010900045E024FFFC
:100D0700F0900044E034FFF080037F01227F00224F
:0B0F99009000447403F0A37420F022C9
:100D1700AE07EED3944050067F01120E4422EEC375
:100D270094D040067F02120E4422E4FF120E4422A2
:070FE1009000417401F022B1
:060FFD00E4900041F02227
:06100300900041E0FF2215
:100F5200900040E06003E4F0229000407401F0222F
:100E7500120FE1120FA4900040E060067F01120EF0
:080E85005D227F02120E5D22C6
:100DD2008F33E533D394405004120E7522E533C3AA
:0E0DE20094C04004120E7522E4FF120E5D2232
:100D3700900042E07002A3E06010900043E024FFBF
:100D4700F0900042E034FFF080037F01227F002211
:0B0FA4009000427401F0A37490F02252
:100783004100320041003D0041003E004100310084
:100793004800356600000000000099410030AF4179
:0807A300002FFF42002B0000B3
:070FE8009000317401F022BA
:06100900E4900031F0222A
:06100F00900031E0FF2219
:0A0FAF0012003E90004CEFF0E0FF4E
:010FB9002215
:10002600900036EFF090003BF07B017A0079357D49
:0500360008120E8D22EE
:100B0D00D390002EE094B490002DE0940040089016
:100B1D00004C740AF0801990002DE0FEA3E0FF7CDC
:100B2D00007D0A1201C27DB41201D490004CEFF089
:050B3D0090004CE0FFF8
:010B42002290
:100BA600EF75F005A490004CF0E0FFC374969F909B
:100BB6000032F090004CE0C374879F90003EF090A6
:0B0BC600004CE0C3747A9F90003DF0EB
:010BD1002201
:10050000C390002CE094C490002BE09409500302A7
:1005100005A3E4F0A3F0120FE8120A9D900033E463
:10052000F0A3EFF0120FAF90003FEFF01210099020
:10053000003FE0C394C5501AE075F064A4FFAEF02C
:10054000900033E0FCA3E0FD1201D490002FEFF007
:10055000800690002F74FFF0120B0D120BA6900076
:100560003DE0FF90002FE0C39F5006A374A1F080F0
:100570002990003EE0FF90002FE0C39F500BA3E0C6
:1005800064A1601674A2F08011900032E0FF900028
:100590002FE0D39F4004A374AFF0900030E0FF122F
:1005A00000262290002CE004F0700690002BE0045E
:0105B000F05A
:0105B1002227
:100C470012100FEF701E1209EA90002DEEF0A3EFBD
:100C5700F0D3E094B490002DE094004004120D7797
:050C670022120E2922FB
:0B07AB0041005700010A000208000096
:100EE500900057E090004CF0E4900057F090004CD3
:020EF500E0FF1C
:010EF70022D8
:070FEF009000577401F0228D
:100C6C0075080075090AE50AC3940F5016740B2514
:100C7C000AF8A607E50AB40708E50BB46603120FD9
:040C8C00EF050A2244
:10042A008B308A318932120F99120FC5AB30AA313B
:10043A00A9329000071201956401705E90000112C2
:10044A000195B48013900002120195B4800A9000BD
:10045A000312019564806021AB30AA31A932900061
:10046A0001120195FF900002120195FD90000312FE
:10047A000195FB120849120F8EAB30AA31A93290AE
:10048A000004120195FF120D17AB30AA31A9329060
:10049A000005120195FF120DD222AB30AA31A93202
:1004AA00900002120195B4800A900001120195642D
:1004BA0080601AAB30AA31A932900002120195FF6E
:1004CA00900001120195FD120333120F8EAB30AA70
:1004DA0031A932900003120195601A9000031201AB
:1004EA0095FF120D17AB30AA31A932900004120100
:0604FA0095FF120DD22255
:04102B00E4F50A22BC
:100EBB00E5094508600AE509150970021508800364
:060ECB007F01227F0022DE
:03103900D2AF2211
:03103C00C2AF221E
:100A620053B1BF53B2BF53B17F53B27F7598504356
:100A72008920438780438E1053C4DFAB07AA06A99F
:100A820005A8047F407E427D0F7C0012029BEF048A
:0B0A9200F404F58DD28ED299D2AC2274
:070FD9003098FDAF99C298AA
:010FE00022EE
:100F1E0090004C74C3F0A37450F0C2998F9930991D
:010F2E00FDC5
:010F2F00229F
:100E8D00AF051DEF601012017CFF120F1E740129BA
:070E9D00F9E43AFA80EA22B1
:100EA4007F01EFD39400400E7E0AEED394004003FA
:060EB4001E80F71F80EC18
:010EBA002215
:100B43008F1FD3EF9400EE940040287D11EDD394D2
:100B53000040197C86ECD39400400E7B02EBD394C7
:100B63000040031B80F71C80EC1D80E1EF1F700128
:030B73001E80CF12
:010B7600225C
:100CB3007F11EFD3940040197E86EED39400400E4B
:100CC3007D02EDD3940040031D80F71E80EC1F804E
:010CD300E13F
:010CD40022FD
:100CD5007FC1EFD3940040197E76EED39400400E89
:100CE5007D02EDD3940040031D80F71E80EC1F802C
:010CF500E11D
:010CF60022DB
:030000000205B244
:1005B20075C7AA75C75575FD5A75C7AA75C755750A
:1005C200FDA5787FE4F6D8FD9000007FFF7E03E46E
:0C05D200F0A3DFFCDEFA75813D02061983
:0807B600410054004100530012
:100BD200120AD6120BF9120F417BFF7A0C7990128E
:100BE2000EF87F007E4B7D007C00120A6212092DF6
:070BF20012103912102F222E
:070FF6009000547401F02289
:06101500E4900054F022FB
:06101B00900054E0FF22EA
:100C9000900053E0C3940A5005E004F08011E49002
:100CA0000053F0120FF6120EBBEF600312102B125E
:020CB0000C47EF
:010CB200221F
:1007BE000327000000032A000000032D00000003A1
:0907CE00210000000324000000DA
:100BF90053B3EF43B410C29453B3F743B408C29349
:100C090053B3FE43B401C29053B1F743B208C28350
:070C190053B3DF53B4DF22E7
:03003B000206EECC
:1006EE00C0E0C0F0C083C082C0D075D000C000C0D2
:0D06FE0001C002C003C004C005C006C00753
:10070B0085EC3BE53B30E411E52845294527603373
:10071B00AA28A92912032D802AE53B30E511E52BE8
:10072B00452C452A601DAA2BA92C12032D8014E5FC
:10073B003B30E60FE52E452F452D6007AA2EA92F3E
:06074B0012032D75EC0005
:10075100D007D006D005D004D003D002D001D000FC
:0B076100D0D0D082D083D0F0D0E032A6
:0507D700031A00000000
:100F30005389F0438901538EF7E4F58CF58AD28CFE
:010F4000228E
:0F0F6200C28C858C1D858A1ED28CAE1DAF1E22BF
:100EF8008B1A8A1B891C75C40275C6FF75C53843D1
:030F08009C022226
:04102F0043C408228C
:080FD000AFC6EFFEADC5EDFF59
:010FD80022F6
:0300830002089CD4
:10089C00C0E0C0F0C083C082C0D075D000C000C022
:1008AC0001C002C003C004C005C006C00753C4EF9A
:1008BC00E51B451C451A6007AA1BA91C12032DD069
:1008CC0007D006D005D004D003D002D001D000D080
:0A08DC00D0D082D083D0F0D0E032FB
:100B7700EDD394145007900000EDF080069000002C
:100B87007414F0900000E0FF7E0078157C007D0172
:0F0B9700120156900015E0F599E490002AF02223
:030023000208E6EA
:1008E600C0E0C0F0C083C082C0D075D000C000C0D8
:1008F60001C002C003C004C005C006C00730980787
:10090600C298AF99120C6C309902C299D007D006E2
:10091600D005D004D003D002D001D000D0D0D082F0
:07092600D083D0F0D0E032D5
:100AD60075C7AA75C75575AA07A2AF9200C2AF75AA
:100AE600C7AA75C75543AA40A20092AFE5AA44BF5C
:100AF600F460F9A2AF9200C2AF75C7AA75C7554395
:070B0600AA80A20092AF22B9
:100ED100A2AF9200C2AF75C7AA75C75543AA40A277
:040EE1000092AF22AA
:10092D0053B3FB43B40453B3FD43B40253B1FE437D
:10093D00B20153B1FD43B202C292C291C280C281D3
:10094D0053DF3F538EBF43DF0253DFFAE4F5D1751A
:10095D00D9BAD2DED2DF43DE0143DE0243DE0843E5
:03096D00DE102277
:100E290043DE0143DE0243DE0843DE10D2DF121047
:0B0E390033120E44121036120E5D2220
:100D7700C2DF53DEFE53DEFD53DEF753DEEFC292D2
:0F0D8700C291C280C281C294C293C290C2832221
:10065E00EF14601814601D14602214602714605289
:10066E002405707BE4F5D28DDAD2DE22E4F5D38D4B
:10067E00DBD2DE22E4F5D48DDCD2DE22E4F5D58D9C
:10068E00DDD2DE22A2AF9200C2AF75C7AA75C755E2
:10069E00439101A20092AFE4F5C48DCCA2AF9200BB
:1006AE00C2AF75C7AA75C7555391FEA20092AFD2BD
:1006BE00DE22A2AF9200C2AF75C7AA75C75543918D
:1006CE0001A20092AFE4F5C58DCDA2AF9200C2AFEC
:1006DE0075C7AA75C7555391FEA20092AFD2DE22FE
:0F0F7100EF700443DE0122EFB4010343DE0222DE
:100F0B00EF700653DEFED29222EFB4010553DEFDE5
:030F1B00D291224E
:0A07DC0042004F000042005103E804
:100F410053B37F43B480D29753ACFE43AD01D2B0CB
:010F5100227D
:05102100C297C2B022DD
:05102600D297D2B022B8
:0B0FBA00309704121021221210262292
:100D570090004FE07002A3E06010900050E024FF85
:100D6700F090004FE034FFF080037F01227F0022E4
:0B0FC50090004F740BF0A374B8F022F2
:100C2000900051E07002A3E0600F900052E024FFBA
:100C3000F0900051E034FFF0229000517403F0A3D3
:070C400074E8F0120FBA2264
:0E0F8000120D57EF6004120C202212102122D5
:01103F00228E
:1009EA0053E8F043E80543B11053B2EFE4F5F64398
:1009FA00F62043E101C2EFD2EE30EFFDAFC3EF754F
:100A0A00F010A4ADC27C002DFEEC35F090004CF045
:0B0A1A00A3CEF090004CE0FEA3E0FF34
:010A250022AE
:100A260053E8F043E80443B12053B2DFE4F5F6435C
:100A3600F61043E101C2EFD2EE30EFFDAFC3EF7522
:100A4600F010A4ADC27C002DFEEC35F0900055F000
:0B0A5600A3CEF0900055E0FEA3E0FFEF
:010A61002272
:10003E0053E8F043E80443B12053B2DFE4F5F6434E
:10004E00F61043E101C2EFD2EE30EFFDAFC3EF7514
:10005E00F010A4ADC27C002DFEEC35F090004DF0FA
:10006E00A3CEF090004DE0C4F854F0C868A3E0C4ED
:04007E00540F48FFD4
:01008200225B
:100A9D0043E80853E8F843E101C2EFD2EE30EFFD31
:100AAD00AFC3EF75F010A4ADC27C002DFEEC35F098
:100ABD0090004CF0A3CEF090004CE0C4F854F0C878
:080ACD0068A3E0C4540F48FFC8
:010AD50022FE
:1005DE000207E7E493A3F8E493A34003F68001F245
:1005EE0008DFF48029E493A3F85407240CC8C3331E
:1005FE00C4540F4420C8834004F456800146F6DFED
:10060E00E4800B010204081020408090076CE47E09
:10061E00019360BCA3FF543F30E509541FFEE493E1
:10062E00A360010ECF54C025E060A840B8E493A3A8
:10063E00FAE493A3F8E493A3C8C582C8CAC583CAD3
:10064E00F0A3C8C582C8CAC583CADFE9DEE780BE8B
:0107E6000012
:10008600E709F608DFFA8046E709F208DFFA803E5C
:1000960088828C83E709F0A3DFFA8032E309F60849
:1000A600DFFA8078E309F208DFFA807088828C83B1
:1000B600E309F0A3DFFA806489828A83E0A3F60865
:1000C600DFFA805889828A83E0A3F208DFFA804C3F
:1000D60080D280FA80C680D4806980F28033801016
:1000E60080A680EA809A80A880DA80E280CA80337F
:1000F60089828A83ECFAE493A3C8C582C8CCC583F7
:10010600CCF0A3C8C582C8CCC583CCDFE9DEE780C6
:100116000D89828A83E493A3F608DFF9ECFAA9F045
:10012600EDFB2289828A83ECFAE0A3C8C582C8CC9B
:10013600C583CCF0A3C8C582C8CCC583CCDFEADEB4
:10014600E880DB89828A83E493A3F208DFF980CC16
:1001560088F0EF60010E4E60C388F0ED2402B4040F
:100166000050B9F582EB2402B4040050AF232345B6
:0601760082239000D67305
:10017C00BB010689828A83E0225002E722BBFE0281
:09018C00E32289828A83E49322B4
:10019500BB010CE58229F582E5833AF583E022501F
:1001A50006E92582F8E622BBFE06E92582F8E22269
:0D01B500E58229F582E5833AF583E4932283
:1001C200EF8DF0A4A8F0CF8CF0A428CE8DF0A42E51
:0201D200FE220B
:1001D400BC000BBE0029EF8DF084FFADF022E4CC0F
:1001E400F875F008EF2FFFEE33FEEC33FCEE9DECD8
:1001F400984005FCEE9DFE0FD5F0E9E4CEFD22ED1E
:10020400F8F5F0EE8420D21CFEADF075F008EF2F67
:10021400FFED33FD4007985006D5F0F222C398FD58
:050224000FD5F0EA22F5
:10022900C2D5EC30E709B2D5E4C39DFDE49CFCEEF0
:1002390030E715B2D5E4C39FFFE49EFE1201D4C393
:10024900E49DFDE49CFC80031201D430D507C3E48E
:060259009FFFE49EFE225F
:10025F0075F008758200EF2FFFEE33FECD33CDCC56
:10026F0033CCC58233C5829BED9AEC99E5829840D9
:10027F000CF582EE9BFEED9AFDEC99FC0FD5F0D6B6
:10028F00E4CEFBE4CDFAE4CCF9A88222B800C1B9E0
:10029F000059BA002DEC8BF084CFCECDFCE5F0CB1E
:1002AF00F97818EF2FFFEE33FEED33FDEC33FCEB57
:1002BF0033FB10D703994004EB99FB0FD8E5E4F912
:1002CF00FA227818EF2FFFEE33FEED33FDEC33FCFF
:1002DF00C933C910D7059BE99A4007EC9BFCE99AF3
:1002EF00F90FD8E0E4C9FAE4CCFB2275F010EF2F38
:1002FF00FFEE33FEED33FDCC33CCC833C810D70738
:10030F009BEC9AE899400AED9BFDEC9AFCE899F872
:0E031F000FD5F0DAE4CDFBE4CCFAE4C8F92205
:06032D008A838982E4735B
:00000001FF
