:100B2D0048656C6C6F205769464920436172200DF2
:020B3D000A00AC
:1006720041003F004100410041003C0042003A007D
:010682000077
:100A93007F14EFD39400400E7E01EED39400400305
:060AA3001E80F71F80EC2D
:010AA900222A
:1004F900E4900048F012003912097E7BFF7A0B79EB
:100509002D120AEE120C32EF600F120C2C1209C3D5
:10051900EF6003120006120B8090003EE024FB609E
:100529001924FC601C2498600A04701C7F02120ABA
:10053900AA80D17F01120AAA80CA7F02120AD88032
:10054900C37F01120AD880BCE4FF120AAAE4FF1291
:060559000AD880B080AE5C
:01055F002279
:0100390022A4
:01003A0022A3
:100342008B318A328933120BB3AB31AA32A9339083
:100352000002120195B4800A900001120195648096
:10036200601AAB31AA32A933900002120195FF90B4
:100372000001120195FD12061C120BA8AB31AA3224
:10038200A933900003120195605EE490003EF09064
:100392000003120195D39440500790003E7471F00F
:1003A20022AB31AA32A933900003120195C394D033
:1003B200400790003E7470F022AB31AA32A933900C
:1003C2000004120195D39440500790003E7409F046
:1003D20022AB31AA32A933900004120195C394C012
:0903E200400690003E7405F02273
:050683004200460000EA
:1008D8008F38E53860042450F538ED600FE4FD7F6B
:1008E800011203EBAD387F041203EB22AD387F0110
:0B08F8001203EBE4FD7F041203EB226F
:100903008F38E53860042450F538ED600EAD387F3C
:10091300031203EBE4FDFF1203EB22E4FD7F03125A
:0A09230003EBAD38E4FF1203EB22F2
:100A5E00E4FD7F011203EBE4FD7F041203EBE4FDE2
:0C0A6E007F031203EBE4FDFF1203EB22F8
:100006007DFF7F011203EB7DFF7F041203EB7DFF73
:0D0016007F031203EB7DFFE4FF1203EB22DA
:100AAA00EF24FE600804700AD285C29522C285D25C
:070ABA009522C285C29522BE
:100AD800EF14600814700AD290C28322C290D283A5
:060AE80022C290C283222D
:100A22008E368F37C3E536648094804006E4FD122B
:0E0A320008D822E537F404FF7D011208D8220F
:100A40008E368F37C3E536648094804006E4FD120D
:0E0A5000090322E537F404FF7D011209032299
:02061C00AC0729
:10061E00E4FFFEF534F535900049F0EC2480FFE45C
:10062E0034FFFEEC2480F535E434FFF534ED6480C0
:10063E006027EDD39480400DE4FEFFED2480F53568
:10064E00E434FFF534EDC39480500EE4F534F53503
:10065E00C374809DFFE49400FE120A22AF35AE34BF
:03066E00120A402D
:010671002266
:1009C300900046E07002A3E06010900047E024FF2F
:1009D300F0900046E034FFF080037F01227F002285
:0B0BA8009000467401F0A374F4F022EA
:030C4800D2AF2206
:030C4B00C2AF2213
:10080E0053B1BF53B2BF53B17F53B27F75985043AC
:10081E008920438780438E1053C4DFAB07AA06A9F5
:10082E0005A8047F407E427D0F7C001201FEEF047E
:0B083E00F404F58DD28ED299D2AC22CA
:070BE2003098FDAF99C298A5
:010BE90022E9
:080BEA00C2998F993099FD2298
:100AC100AF051DEF601012017CFF120BEA740129C2
:070AD100F9E43AFA80EA2281
:100AEE0012017C601012017CFF120BEA740129F9CD
:060AFE00E43AFA80EB224D
:0300000002029663
:1002960075C7AA75C75575FD5A75C7AA75C7557529
:1002A600FDA5787FE4F6D8FD9000007FFF7E03E48D
:0C02B600F0A3DFFCDEFA7581400202FDBF
:0406880041003800F5
:10097E001209A2120BD07BFF7A0B798E1200267F02
:10098E00C07E127D007C0012080E12003E120C4832
:04099E00120C4022D5
:01008200225B
:04007E0012087C22C6
:1008AB00900037E06002E4F090002DE0B40117A354
:1008BB00E0701390003904F090002CE004F0700607
:0D08CB0090002BE004F090002DE0A3F0223F
:040C3800120B622217
:100A7A00C390002CE094E890002BE094034007E434
:090A8A00F0A3F07F01227F00229D
:070BF200900039E0FFE4F080
:010BF90022D9
:040C3C00120BC722AE
:100A0300AE07EEC3940440037FFF22EE25E0242FBC
:0F0A1300F582E43400F583ECF0A3EDF0AF06229A
:100B3F00EF25E0242FF582E43400F583E0FEA3E0F7
:020B4F00FF2283
:10084900EF14601314601914601F240370227F07CA
:100859001205BE8F1F8019E4FF120B9B8F1F80109A
:100869007F051205608F1F80077F071205608F1FA4
:02087900AF1FAF
:01087B00225A
:080BFA00AD07E4FF120BBE225F
:100794008B3E8A3F8940EF14601524FA601B146075
:1007A4002224087027AB3EAA3FA940120C1E22AB9C
:1007B4003EAA3FA940120C2522AB3EAA3FA94012F3
:0D07C4000C1022AB3EAA3FA940120C1722D8
:070C02009000387401F0229C
:060C2C00E4900038F02204
:060C3200900038E0FF22F3
:0D0B8E00120C02120B04EF6003120C442243
:10068C000327000000032A000000032D00000003D4
:09069C002100000003240000000D
:1009A20053B1DF43B220C28553B3DF43B420C295B3
:1009B20053B3FE43B401C29053B1F743B208C283AA
:0109C2002212
:10056000EFB40800505590056DF8282873020585F2
:1005700002058C02059302059A0205A10205A80254
:1005800005AF0205B6A280E433FE802FA281E433DA
:10059000FE8028A282E433FE8021A283E433FE8021
:1005A0001AA284E433FE8013A285E433FE800CA2F9
:0D05B00086E433FE8005A287E433FEAF062B
:0105BD00221B
:1005BE00EFB4080050559005CBF82828730205E3D8
:1005CE000205EA0205F10205F80205FF020606021F
:1005DE00060D020614A290E433FE802FA291E4339E
:1005EE00FE8028A292E433FE8021A293E433FE80A3
:1005FE001AA294E433FE8013A295E433FE800CA27B
:0D060E0096E433FE8005A297E433FEAF06AC
:01061B0022BC
:0C0B9B00E4FEEF7005A2B0E433FEAF06EC
:010BA700222B
:090BBE00EF7005ED24FF92A02266
:070C09008B278A28892922AC
:070C10008B2A8A2B892C229C
:070C17008B2D8A2E892F228C
:070C1E008B218A22892322A9
:070C25008B248A2589262299
:03003B0002047B41
:10047B00C0E0C0F0C083C082C0D075D000C000C047
:0D048B0001C002C003C004C005C006C007C8
:1004980085EC30E53030E411E528452945276033FF
:1004A800AA28A929120290802AE53030E511E52B07
:1004B800452C452A601DAA2BA92C1202908014E510
:1004C8003030E60FE52E452F452D6007AA2EA92FBF
:0604D80012029075EC0019
:1004DE00D007D006D005D004D003D002D001D00072
:0B04EE00D0D0D082D083D0F0D0E0321C
:03000300020706EB
:10070600C0E0C0F0C083C082C0D075D000C000C0B9
:1007160001C002C003C004C005C006C007E52245EB
:100726002345216007AA22A923120290D007D006EA
:10073600D005D004D003D002D001D000D0D0D082D2
:07074600D083D0F0D0E032B7
:0506A500033900000014
:100B51005389F0438901538EF7E4F58CF58AD28CE1
:010B61002271
:0F0B6200C28C858C3C858A3DD28CAE3CAF3D2247
:100026008B398A3A893B75C40275C6F875C5304363
:030036009C022207
:040C400043C408227F
:080BC700AFC6EFFEADC5EDFF66
:010BCF002203
:030083000206BCB6
:1006BC00C0E0C0F0C083C082C0D075D000C000C004
:1006CC0001C002C003C004C005C006C00753C4EF7C
:1006DC00E53A453B45396007AA3AA93B120290D04E
:1006EC0007D006D005D004D003D002D001D000D062
:0A06FC00D0D082D083D0F0D0E032DD
:0706AA00010A000208000034
:1007D100E4900029F053B1BF53B2BF53B17F53B27C
:1007E1007F759850438920438780438E1053C4DF1F
:1007F1007B807A25F9F87F407E427D0FFC1201FE55
:0C080100EF04F404F58DD28ED299D2AC35
:01080D0022C8
:10087C00EDD394145007900000EDF080069000002A
:10088C007414F0900000E0FF7E0078157C007D0170
:0F089C00120156900015E0F599E490002AF02221
:10092D0075080075090AE50AC39414501C740B254B
:10093D000AF8A607E50AB40A0EE50BB466097B00B2
:0A094D007A00790B120342050A221A
:040C4400E4F50A22A7
:100B0400E5094508600AE50915097002150880031E
:060B14007F01227F002298
:0300230002074D84
:10074D00C0E0C0F0C083C082C0D075D000C000C072
:10075D0001C002C003C004C005C006C00730980721
:10076D00C298AF9912092D309902C299D007D006BF
:10077D00D005D004D003D002D001D000D0D0D0828B
:07078D00D083D0F0D0E03270
:10003E0053B3FB43B40453B3FD43B40253B1FE4375
:10004E00B20153B1FD43B202C292C291C280C281CB
:10005E0053DF3F538EBF43DF07E4F5D175D9CED2C0
:10006E00DED2DF43DE0143DE0243DE0843DE102232
:1003EB00EF14601814601D146022146027146052FF
:1003FB002405707BE4F5D28DDAD2DE22E4F5D38DC1
:10040B00DBD2DE22E4F5D48DDCD2DE22E4F5D58D11
:10041B00DDD2DE22A2AF9200C2AF75C7AA75C75557
:10042B00439101A20092AFE4F5C48DCCA2AF920030
:10043B00C2AF75C7AA75C7555391FEA20092AFD232
:10044B00DE22A2AF9200C2AF75C7AA75C755439102
:10045B0001A20092AFE4F5C58DCDA2AF9200C2AF61
:10046B0075C7AA75C7555391FEA20092AFD2DE2273
:0F0B7100EF700443DE0122EFB4010343DE0222E2
:100B1A00EF700653DEFED29222EFB4010553DEFDDA
:030B2A00D2912243
:0A06B100420042000042004403E84A
:090BD00053B37F43B480C29722A5
:030C4E00D2972218
:030C5100C2972225
:090BD900309703C29722D2972243
:1009E300900042E07002A3E06010900043E024FF17
:1009F300F0900042E034FFF080037F01227F002269
:0B0BB300900042740BF0A374B8F02215
:10095700900044E07002A3E0600F900045E024FFA0
:10096700F0900044E034FFF0229000447403F0A3B9
:0709770074E8F0120BD92215
:0E0B80001209E3EF600412095722120C4E22F4
:1002C2000204F9E493A3F8E493A34003F68001F255
:1002D20008DFF48029E493A3F85407240CC8C3333D
:1002E200C4540F4420C8834004F456800146F6DF0C
:1002F200E4800B0102040810204080900672E47E24
:10030200019360BCA3FF543F30E509541FFEE49300
:10031200A360010ECF54C025E060A840B8E493A3C7
:10032200FAE493A3F8E493A3C8C582C8CAC583CAF2
:10033200F0A3C8C582C8CAC583CADFE9DEE780BEAA
:0106BB00003E
:10008600E709F608DFFA8046E709F208DFFA803E5C
:1000960088828C83E709F0A3DFFA8032E309F60849
:1000A600DFFA8078E309F208DFFA807088828C83B1
:1000B600E309F0A3DFFA806489828A83E0A3F60865
:1000C600DFFA805889828A83E0A3F208DFFA804C3F
:1000D60080D280FA80C680D4806980F28033801016
:1000E60080A680EA809A80A880DA80E280CA80337F
:1000F60089828A83ECFAE493A3C8C582C8CCC583F7
:10010600CCF0A3C8C582C8CCC583CCDFE9DEE780C6
:100116000D89828A83E493A3F608DFF9ECFAA9F045
:10012600EDFB2289828A83ECFAE0A3C8C582C8CC9B
:10013600C583CCF0A3C8C582C8CCC583CCDFEADEB4
:10014600E880DB89828A83E493A3F208DFF980CC16
:1001560088F0EF60010E4E60C388F0ED2402B4040F
:100166000050B9F582EB2402B4040050AF232345B6
:0601760082239000D67305
:10017C00BB010689828A83E0225002E722BBFE0281
:09018C00E32289828A83E49322B4
:10019500BB010CE58229F582E5833AF583E022501F
:1001A50006E92582F8E622BBFE06E92582F8E22269
:0D01B500E58229F582E5833AF583E4932283
:1001C20075F008758200EF2FFFEE33FECD33CDCCF4
:1001D20033CCC58233C5829BED9AEC99E582984077
:1001E2000CF582EE9BFEED9AFDEC99FC0FD5F0D654
:1001F200E4CEFBE4CDFAE4CCF9A88222B800C1B97E
:100202000059BA002DEC8BF084CFCECDFCE5F0CBBB
:10021200F97818EF2FFFEE33FEED33FDEC33FCEBF4
:1002220033FB10D703994004EB99FB0FD8E5E4F9AF
:10023200FA227818EF2FFFEE33FEED33FDEC33FC9C
:10024200C933C910D7059BE99A4007EC9BFCE99A90
:10025200F90FD8E0E4C9FAE4CCFB2275F010EF2FD5
:10026200FFEE33FEED33FDCC33CCC833C810D707D5
:100272009BEC9AE899400AED9BFDEC9AFCE899F810
:0E0282000FD5F0DAE4CDFBE4CCFAE4C8F922A3
:060290008A838982E473F9
:00000001FF
